:020000021000EC
:10C00000B4DA002021C4010015C4010009C40100F4
:10C0100015C40100FDC30100F1C3010000000000D0
:10C020000000000000000000000000003941020094
:10C0300015C4010000000000D3410200E3410200EA
:10C0400015C4010015C4010015C4010015C4010088
:10C0500015C4010015C401006513020015C40100D8
:10C0600015C4010015C4010015C4010015C4010068
:10C0700015C4010015C4010015C4010015C4010058
:10C0800015C40100B108020015C4010015C4010067
:10C0900015C4010015C40100ADE9010015C401007B
:10C0A00015C4010015C4010015C4010015C4010028
:10C0B00015C4010015C401000000000000000000CC
:10C0C00015C4010015C4010015C4010015C4010008
:10C0D00015C4010015C4010015C4010015C40100F8
:10C0E00015C4010000000000000000000000000076
:10C0F0000000000015C401000000000015C401008C
:10C10000000000000000000000000000000000002F
:10C11000000000000000000000000000000000001F
:10C12000000000000000000000000000000000000F
:10C1300000000000000000000000000000000000FF
:10C1400000000000000000000000000000000000EF
:10C1500000000000000000000000000000000000DF
:10C1600000000000000000000000000000000000CF
:10C1700000000000000000000000000000000000BF
:10C1800000000000000000000000000000000000AF
:10C19000000000000000000000000000000000009F
:10C1A000000000000000000000000000000000008F
:10C1B000000000000000000000000000000000007F
:10C1C000000000000000000000000000000000006F
:10C1D000000000000000000000000000000000005F
:10C1E000000000000000000000000000000000004F
:10C1F000000000000000000000000000000000003F
:10C2000008B5314C314D324E4FF0FF320021012044
:10C2100007F0A6FE204600F0B5FA284600F0B2FA74
:10C22000204608F04DFD81B2204600F0D1FE2046A8
:10C2300008F046FD0128E7D12378643B112BE3D8B1
:10C2400001A252F823F000BFBBC2010009C20100E5
:10C2500009C2010009C2010009C2010009C20100AE
:10C2600009C2010009C20100ADC2010009C20100FA
:10C2700009C2010009C2010009C2010009C201008E
:10C280009FC2010009C2010009C2010091C2010060
:10C29000104800F077FA012000F020FAB4E73046A9
:10C2A00000F070FA012000F03BFAADE70A4800F018
:10C2B00069FA012000F02AFAA6E7084800F062FABD
:10C2C000012000F017FA9FE7982700205C51020038
:10C2D000B85002008C500200AC5002009C5002008A
:10C2E000002208B51146094807F088FD182107F01B
:10C2F000A5FD00221146064807F080FD054B186099
:10C30000BDE80840082107F099BD00BF19C301002E
:10C3100001C201009828002008B50948094C0A4DBF
:10C3200000F0A2FA0026284600F058F923680133ED
:10C33000642B2360F7D1266007F09EFDF3E700BF72
:10C34000C4500200902700200826002038B505467A
:10C350000A460C460E48294608F012FC621E2A4482
:10C3600013780A2B144602F1FF32F9D00D2BF7D0C7
:10C37000C5F101052544064A064B07481D6000210A
:10C3800051550068BDE83840012107F0A1BD00BF4C
:10C3900098270020942700209828002008B500F056
:10C3A000EBF8104800F076FE0F4800F05DFA6422CA
:10C3B0004FF4FA614FF4FA7000F000FC06F0DAFB7B
:10C3C00000221146094807F019FD182107F036FD33
:10C3D00006F0ECFB022108464FF0FF3200F03EF978
:10C3E000002008BD4DC30100D4500200E1C201008D
:10C3F0004FF0FF320221042000F030B94FF0FF323D
:10C400000121042000F02AB94FF0FF32002104205E
:10C4100000F024B904214FF0FF32084600F01EB9A5
:10C420002449254CA14280B521D2631E5B1A9E0887
:10C43000032B0A4606F101063AD9204F750807EB8F
:10C44000C5053B46D3F800C05868C2F800C00833A1
:10C450009D42506002F10802F4D1F20707D526F0A0
:10C46000010607EB860301EB86021B681360144B81
:10C470009C4218D2013B1A1B9008032A0E4B00F174
:10C4800001000ED9410804EBC10100221A605A6074
:10C4900008338B42FAD1C30705D520F0010004EB25
:10C4A000800300221A6000F00DF8FFF777FFFEE727
:10C4B000024BDAE7082600209027002010600200D7
:10C4C000B4BA002010B44FF0E0220849D2F8883DF9
:10C4D0004FF0804043F47003C2F8883D0124044BC0
:10C4E00004600B605DF8044B704700BF9C2800207F
:10C4F0000090D0034FF47A7300BF00BF00BF00BFAD
:10C5000000BF00BF00BF00BF00BF00BF00BF00BF33
:10C5100000BF00BF00BF00BF00BF00BF00BF00BF23
:10C5200000BF00BF00BF00BF00BF00BF00BF00BF13
:10C5300000BF00BF00BF00BF00BF00BF00BF00BF03
:10C5400000BF00BF00BF00BF00BF00BF00BF00BFF3
:10C5500000BF00BF00BF00BF00BF00BF00BF00BFE3
:10C5600000BF00BF00BF00BF00BF00BF00BF00BFD3
:10C57000013BC1D1704700BF70B5164C661D14F861
:10C58000015B284600F062F90021284600F034F9EA
:10C59000A642F4D1104C661D14F8015B284600F049
:10C5A00047F90021284600F027F9B442F4D10C21C4
:10C5B0000E2000F015F90C21172000F011F90621CA
:10C5C000282000F0B7F80022BDE870400321104693
:10C5D00000F0D8BAEC500200E45002002DE9F04F10
:10C5E00083B0431DDFF870A0194F019380461AF8FD
:10C5F000019B184C484600F029F945462B78A34684
:10C6000014F8010BB3B100F013F9FFF773FF9BF8B7
:10C61000000000F01BF9BC4205F10505EED14846CB
:10C6200000F006F9019B08F101089845DFD103B03D
:10C63000BDE8F08F00F00AF9FFF75CFF9BF80000FF
:10C6400000F004F9BC4205F10505D7D1E7E700BFCA
:10C65000F1500200EC500200E45002002DE9F041DC
:10C6600006461C208846144600F0E2F80B2000F035
:10C67000DFF81F2000F0DCF8252000F0D9F81E209C
:10C6800000F0D6F8134B144F13F8080000F0DEF852
:10C69000621C01D0002C17DDBD5D284600F0C8F8F3
:10C6A0004FF4FA72FFF726FF013AFBD1284600F05B
:10C6B000CDF84FF4FA72FFF71DFF013AFBD1631C6E
:10C6C000EBD0013C002CE7DC17F80800BDE8F04196
:10C6D00000F0AEB8E4500200EC5002000349044AF6
:10C6E000034612680868194600F084BA282600201C
:10C6F000242600200349044A0346126808681946A4
:10C7000000F078BA2426002028260020034B1A685F
:10C7100001460346104600F06DBA00BF28260020EF
:10C72000034B1A6801460346104600F063BA00BF87
:10C7300024260020F8B5124C00250E46074629464F
:10C740003046C4F8005500F057F82946384600F046
:10C7500047F8304600F06CF801234FF0EB710422EB
:10C76000C4F80C65C4F81475C4F82415C4F86C55E5
:10C77000C4F80025A3602360C4F80851F8BD00BFC9
:10C780000020004003786BB1074A0021C2F81C3535
:10C79000D2F81C31002BFBD0C2F81C1110F8013F5D
:10C7A000002BF3D1704700BF002000400B1E13DDAB
:10C7B000411E0A4A10B4C818002411F8013FC2F8FB
:10C7C0001C35D2F81C31002BFBD08142C2F81C4131
:10C7D000F3D15DF8044B7047704700BF0020004064
:10C7E0001F288ABF024B034B203843F820107047A4
:10C7F000000A0050000700501F2830B40DD9084C23
:10C80000084A20381568012383402B4341F0010179
:10C81000136044F8201030BC7047034C034AF1E722
:10C82000000A005014080050000700501405005082
:10C830001F288ABF034A044A20380123834013601B
:10C84000704700BF08080050080500501F288ABF25
:10C85000034A044A2038012383401360704700BF15
:10C860000C0800500C0500500FB42DE9F0438DB0BA
:10C8700014AF002157F8044B0B912578029755B35C
:10C8800007AE0BE0102920D00B46013130336B444A
:10C890000B9103F8145C65780134F5B1252DF1D1C5
:10C8A0006378002BEED0A3F163020134152A1CD863
:10C8B000DFE802F0D4981B1B1B1B1B1B1B1B1B1B45
:10C8C0001B1B1B1B731B3B1B1B263046FFF76EFFFE
:10C8D00001210023DAE7294607AE3046FFF766FF5D
:10C8E0000DB0BDE8F04304B07047102900F01D8181
:10C8F0000A46013130326A440B9102F8143CCAE70F
:10C90000B94659F8045B002D40F0D480102900F09E
:10C9100025810D46013105F130030DEB0305302370
:10C920000B914F4605F8143CB5E7002357F804CBAC
:10C930009248DFF84C928DF81B300DF11B08A9FBD3
:10C940000C23DB0803EB8302ACEB4202E646855C7A
:10C9500008F8015DBEF1090F9C46F0D8002D9AD071
:10C960004FF001090AE001F130036B44013103F893
:10C97000145C18F8015F0B91002D8CD01029F2D1B6
:10C980003046FFF713FF8DF81C5018F8015FCDF803
:10C990002C900121002DE6D17DE757F8048B98F803
:10C9A0000050002D3FF477AF4FF001090BE001F18B
:10C9B00030036B4401310B9103F8145C18F8015FEC
:10C9C000002D3FF468AF1029F1D13046FFF7EEFE9D
:10C9D000CDF82C908DF81C5018F8015F0121002D26
:10C9E000E5D158E757F8043B002B44DB00226348AD
:10C9F000DFF88CE18DF81B200DF11B08AEFB035214
:10CA0000D20802EB8205A3EB45059C46455D08F87C
:10CA1000015DBCF1090F1346F0D8002D3FF43BAF88
:10CA20004FF001090BE001F130036B44013103F8D1
:10CA3000145C18F8015F0B91002D3FF42CAF102906
:10CA4000F1D13046FFF7B2FE8DF81C5018F8015FA7
:10CA5000CDF82C900121002DE5D11CE757F8045B9F
:10CA60001029EDB269D00B46013130336B440B9184
:10CA700003F8145C0FE700224048DFF804918DF8BA
:10CA80001B205B420DF11B0CA9FB0352D20802EBE9
:10CA90008205A3EB45059E46455DBEF1090FE046C4
:10CAA00013460CF8015DEFD82D25A8F102080CF80B
:10CAB000015CB5E7102946D030200A184B1C6A44A7
:10CAC000102B0B9302F8140C4DD0023130336B4411
:10CAD000782203F8142C29480B9100238DF81B3081
:10CAE0000DF11B0805F00F030F2DC75C08F8017D41
:10CAF0004FEA1515F6D87FB3012509E00B46591CFE
:10CB000030336B440B9103F8147C18F8017F1FB38A
:10CB10001029F3D13046FFF749FE8DF81C7018F844
:10CB2000017F0B9537B30123E9E730460193FFF707
:10CB30003DFE019B01210022DCE63046FFF736FE78
:10CB40000121002391E73046FFF730FE30238DF8B6
:10CB50001C3002210123B9E74F469CE63046FFF71F
:10CB600025FE0121D7E619463046FFF71FFE0121B9
:10CB70000023ABE74F4601218DE600BFF4500200D1
:10CB8000CDCCCCCC38B514460D4600F087F81CB996
:10CB9000094B32221A6038BD4FF440712046FFF72E
:10CBA0002BFE2046FFF744FE284600F0CBF8024B50
:10CBB00032221A6038BD00BFA0280020F8B50B4B08
:10CBC0000546D41783FB0203132AC4EBE304A1EB4D
:10CBD000050696FBF4F608DD054F39682846142251
:10CBE00000F068F8013C3544F7D1F8BD6766666629
:10CBF000A028002001FB00F003FB02F26FF01803F5
:10CC000003FB00F0F0B403FB02F21F4C1F4900F1DC
:10CC100032034FF4FA6000FB03F3323284FB036506
:10CC200000FB02F2DB17C3EB651384FB0254D2173F
:10CC3000C2EB641292B2002462F30F049BB262F35F
:10CC40001F44002263F30F0263F31F42104BC1F82D
:10CC50000805104EC3F808050F48C1F820650125E6
:10CC60004FF49C674FF0020CC1F824C5C1F8287539
:10CC7000C3F82005C3F824C5C3F8287532600460E2
:10CC80009D608D60F0BC70471F85EB510010024025
:10CC900000200240A8280020A4280020044B0521E1
:10CCA0000122C3F80C15C3F86005C3F800257047CE
:10CCB00000C0014030B41E4B1E4C93FBF0F39BB2FE
:10CCC00003FB01F102FB00F01B4A84FB0154C9176E
:10CCD0004FEAE07CC1EB641182FB0020174A89B265
:10CCE0000024C2F8083561F30F04154BC2F8203553
:10CCF000CCEBA01061F31F44023801210225C2F8D9
:10CD00002455C2F828051C609160D2F81031002B20
:10CD1000FBD0002001230949C2F810015360D1F86B
:10CD20000431002BFBD00023C1F8043130BC704724
:10CD300020A107001F85EB51D34D621000C00140B8
:10CD4000AC2800200A4B012210B41044C3F800257F
:10CD5000084CC3F8100541F2D0710322C3F81845FE
:10CD6000C3F8F815C3F8F0255DF8044B704700BF11
:10CD7000007000400007020076DF70477ADF7047DE
:10CD80007CDF70477FDF70478FDF7047B1DF704710
:10CD900033DF704702F0A0B910B50388212B82B0B1
:10CDA000044613D80F2B0FD9103B112B0CD8DFE8FA
:10CDB00003F028400B500B0B0B0B0B0B0B0B0B0B4F
:10CDC0000B0B0B1C3B2B05D002B010BD522B4AD0D5
:10CDD000562BF7D1A0881321FFF7CEFF0028F3D000
:10CDE00002B0BDE8104002F077B900238088ADF8AA
:10CDF000043001A9FFF7C8FF0028E5D002F06CF964
:10CE0000E2E71F4B1F482049C01AC008000440F049
:10CE1000030001F017FB072000F090FC00282CD144
:10CE20001A4BA1881A48198000F042FF0028CBD085
:10CE3000D6E7134B13481749C01AC008000440F046
:10CE4000030001F0FFFA114B4FF6FF721A8002B097
:10CE500010BD0E4A0023108885211A46FFF792FF65
:10CE60000028B1D0BCE7094A0023108819461A46A9
:10CE7000FFF78CFF0028A7D0B2E702F02DF9CFE72B
:10CE8000A85F0200B05F02000851020032260020B5
:10CE9000A02A00201451020008B5037803B108BD90
:10CEA000054B3B211888FFF767FF0028F7D0BDE846
:10CEB000084002F011B900BF32260020072808B54B
:10CEC0001CD00A280ED0042800D008BD154B132111
:10CED0001888FFF751FF30F00803F6D0BDE808408E
:10CEE00002F0FAB8002000F029FCB8B900F02CFDDF
:10CEF00088B9FFF74DFF0028F0D108BD094A128814
:10CF00004FF6FF739A42E0D1074802F01BFE30F063
:10CF10000803E3D1D9E702F0DFF8EAE702F0DCF832
:10CF2000E4E700BF32260020A82900200D4B4A88E4
:10CF30001B889A4200D070470A8840F677239A42AD
:10CF4000F9D1094A09488B880949801A033B094AE3
:10CF5000C0089BB20004138040F003001A4601F0A1
:10CF6000AFB800BF32260020A85F0200B05F020009
:10CF70002451020030260020037823B9024B818A15
:10CF80001B68006918477047C42A002002F0A4B843
:10CF900008B530B1032803D1022000F0CFFB50B90F
:10CFA00008BD00F0CBFB50B900F0CEFC68B9FFF72C
:10CFB000EFFE0028F4D0BDE8084002F08DB802F082
:10CFC0008BF800F0C1FC0028F1D002F085F8EEE704
:10CFD0002DE9F04F85B0019189B3284CDFF8A4A06A
:10CFE00094F800C0DFF8A490DFF8A480451E4FF04D
:10CFF000000B0CF1010215F8011F0AF80C105FFA82
:10D0000082FC0AEB0C0284F800C012F8012C0A2AF8
:10D0100009D00D2A07D0019B5A1E5A4503D0184A41
:10D020001288624506D8BCF1000F0BD14FF0000CFE
:10D0300084F800C0019B0BF1010B5B45D9D105B011
:10D04000BDE8F08F0F4F104EB9F80030ADF80EC0AC
:10D050000DF10E023946304603F024F8082828FA6C
:10D0600000F3E3D0132801D8DB0702D402F034F830
:10D07000DCE71328DAD194F800C0E5E7A429002002
:10D0800030260020B0280020342600203226002040
:10D090002100080010B54FF48041ACB004460020D8
:10D0A00000F098FE002840F0C88000F083FE02F0F7
:10D0B000E9F9002840F0CA808849032000F04AFBC3
:10D0C000002840F0CC8001A9002000F04FFC00288F
:10D0D00040F0CE8001F0B4FB002840F0D08001F099
:10D0E0005BFC002840F0D280002301A901200193BD
:10D0F00001F0AEFC002840F0ED8001A801F080FDB9
:10D10000002840F0E480112375488DF8003007F0C6
:10D11000D7FD734982B26846FFF732FE002840F01F
:10D12000D3800822002101A807F07AFC6D4A4FF055
:10D13000C87301A8CDE90123FFF720FE002840F0C5
:10D14000C0806949694800F093FC002840F0B6802F
:10D150006648F72100F0A4FC002840F0AC80644B46
:10D160006448019301A900F091FD002840F0A080DF
:10D1700000210422684607F053FC5F4B5F48009390
:10D18000694602F01DFF002840F08F80AC2200218C
:10D1900001A807F045FC01235949159102204021BF
:10D1A000ADF850308DF8803044F25063554A8DF818
:10D1B00004002391249354482A924FF4A06301A9B8
:10D1C000ADF8063002F0F8FB00286BD14E48012183
:10D1D00002F0EEFB1C22002101A807F021FC002335
:10D1E0004A4A4B4901934FF4A0300290ADF81230F7
:10D1F0008DF81430079203234FF4F02201A8069112
:10D2000003928DF8103002F0FDFD002847D141480F
:10D21000FFF72AFB404A414B41499B1ADB081B049C
:10D2200043F0030001F00EF93748032102F03EFC01
:10D2300078BB3C4B1C602CB010BD01F04DFF00F0E2
:10D24000B9FD02F01FF900283FF436AF01F044FFAA
:10D250002249032000F07EFA00283FF434AF01F0A9
:10D260003BFF01A9002000F081FB00283FF432AF12
:10D2700001F032FF01F0E4FA00283FF430AF01F092
:10D280002BFF01F089FB00283FF42EAF01F024FFB3
:10D290002AE701F021FF234B1C602CB010BD01F0E8
:10D2A0001BFFB4E701F018FF90E701F015FF6DE7F1
:10D2B00001F012FF5CE701F00FFF50E701F00CFFF7
:10D2C00046E701F009FF3CE701F006FF29E701F01E
:10D2D00003FF18E701F000FF0FE700BFBDCE01001C
:10D2E0004051020010003C002DCF0100AC2A00206C
:10D2F00095CD0100A02A002079CF0100342600201E
:10D300002C26002091CF0100A82900208DCF0100FC
:10D3100099CE01004C510200A85F0200B05F0200EC
:10D3200060510200C42A0020022003F0C7B800BFE9
:10D330002DE9F04706460D4603F0EEF8012801D925
:10D34000BDE8F087012D04461FD0022D17D0002D17
:10D35000F6D11C4802F040F91B4B1C4A04EB440177
:10D360000B44125D9D78AA42EAD1002DE8D0184BFB
:10D370001B68002BE4D02846BDE8F0471847124B45
:10D3800000EB400423445D78EFE70F4F00EB4003D0
:10D39000FA18FD5C53784FEA40082BB9A044474483
:10D3A0000A4BBA781A55E0E7DFF8289005484A4654
:10D3B0004FF4804102F0B4F80028EFD189F8006002
:10D3C000ECE700BF58260020CC2A0020C82A002005
:10D3D000D42A0020CA2A002010B5007803F09CF857
:10D3E000012800D910BD074B00EB400003445878DA
:10D3F0000028F7D0044B1B68002BF3D0BDE8104089
:10D40000184700BFCC2A0020D42A002070B5BC4E9B
:10D410003378054673B1BB4B1B7800243470002B66
:10D420004DD0022C08BF03242046013402F0D4FF63
:10D430000A2CF6D1172D61D8DFE815F0E80063005B
:10D440006300FE002901810095007A00500044002D
:10D4500050004400E20018001800180018001800DE
:10D46000A300B600CC0011015C005C00A64802F0ED
:10D47000B3F8D5F11105044600F02C81002840F0E6
:10D480002981012D14D0C82303FB05F521464FF453
:10D4900000434FF47A70C5FB03014FF4FA62002396
:10D4A00007F07CFC22460146974802F039F8044612
:10D4B000022002F07FFF934B01221A701FE002F05E
:10D4C0009DFFB7E70120307002F0F8FFBDE8704023
:10D4D0008E4800224FF4005102F022B80120307033
:10D4E00002F0ECFFBDE870408848002240F266611F
:10D4F00002F016B802F0B2FF854B1D7000242046E2
:10D5000070BD002002F042FF002840F0CC8002F005
:10D5100051FF40F6CD4141F69A13022D18BF19462E
:10D520007B4B7A481D70BDE87040002201F0F8BFC7
:10D53000002002F03FFF764B07221A70DEE7002042
:10D5400002F024FF002800F0C280002002F044FF17
:10D550006F4B6E4805241C70BDE87040002240F6F9
:10D56000CD4101F0DDBF002002F0A8FF684B674805
:10D5700006241C70BDE87040002240F2666101F094
:10D58000CFBF604B1B78002B00F0B4800024022C2E
:10D5900008BF03242046013402F01EFF0A2CF6D1F6
:10D5A0005B4B12221A70A9E7564B1B78002B00F038
:10D5B0009E800024022C08BF03242046013402F080
:10D5C0000BFF0A2CF6D1002002F0F4FE504B132280
:10D5D0001A7093E74B4B1B78002B00F085800024DA
:10D5E000022C08BF03242046013402F0F5FE0A2C69
:10D5F000F6D1012002F0DEFE454B14221A707DE7C1
:10D6000002F02CFF424B0C221A7077E73D4B1B783F
:10D61000002B72D00024022C08BF032420460134C2
:10D6200002F0DAFE0A2CF6D1384801F0D5FF384B6B
:10D63000002204461A7062E7002002F0A7FE0028CC
:10D6400040D0002002F0C8FE43F23331304B0324B7
:10D650001C70BDE870402D48002201F061BF294BCD
:10D660001B78002B3DD00024022C08BF0324204649
:10D67000013402F0B1FE0A2CF6D1002002F09AFE2D
:10D68000012002F097FE224B15221A7036E7002087
:10D6900002F07CFE88B1002002F09EFE4FF4803143
:10D6A0001B4B0424D4E7002002F096FE022D47F223
:10D6B000333118BF4FF4803132E702F07BFE41F680
:10D6C0009A11EDE702F076FE40F6CD41BEE702F09A
:10D6D00071FE3DE7022002F07FFE0A4B00221A7025
:10D6E0000DE702F08BFEC8E702F088FE81E702F04A
:10D6F00085FE68E702F082FE52E702F07FFE93E7C4
:10D70000E02A0020D82A0020782600209826002031
:10D71000E12A0020044B1B68DB0700D47047034B51
:10D720001878FFF773BE00BFDC2A0020E12A002032
:10D73000012801D90020704702F0DABE044B1B68B3
:10D7400013F0010301D118467047FFF75FBE00BF19
:10D75000DC2A002038B5224B224A19608107044692
:10D76000106004D410F0010528D1284638BD1E4BA6
:10D770001E480E210F221970DA70022140F2333256
:10D7800001F038FC054630B1E207EED5012002F089
:10D79000D3FE284638BD01F089FC05460028F3D1A8
:10D7A0000146134A134801F0A3FEE3070546DCD502
:10D7B000012002F0C1FE002DD7D102E0012002F0CD
:10D7C000BBFE0D4A0D48002101F092FE05460028DF
:10D7D000CBD1BDE838400A4A0A48012101F088BE91
:10D7E000D42A0020DC2A0020CC2A00208C51020000
:10D7F000D9D301009C51020015D70100A4510200A9
:10D8000029D30100A0510200012806D8012A06D020
:10D8100001291BD0022908D071B1072070470129C6
:10D8200011D002294FF00002F6D10B4B00EB400063
:10D83000034400205A707047074B00EB400003443C
:10D840009A700020704700F10E02D2B2024B00EB3A
:10D8500040001A54F5E700BFCC2A0020012801D966
:10D860000620704708B502F061FE1F2886BF0A4BEC
:10D8700000F01F004FF0A04303EB80030020D3F81B
:10D88000002722F44032C3F80027D3F8002742F4DF
:10D890004032C3F8002708BD0003005010B50388CC
:10D8A000102B07D0112B04D1254B186801381860B4
:10D8B00030B110BD224C216811B30131216010BD7F
:10D8C00001220221FFF7A0FF40B1072806D01D4B1F
:10D8D0001B68002BEDD0BDE810401847072202213D
:10D8E0000120FFF791FF08B10728F0D100210A229B
:10D8F0000846FFF789FF0028DBD00728D9D0E6E7E4
:10D9000001220846FFF780FF38B1072805D00D4BEC
:10D910001B6803B198472168CFE707220221012045
:10D92000FFF772FF08B10728F1D10422022100207D
:10D93000FFF76AFF0028EED00728ECD0E7E700BF2A
:10D94000E42A0020E82A002008B50020FFF786FF1F
:10D9500010B1062800D008BD0120FFF77FFF002886
:10D96000F9D0062808BF002008BD00BF184B10B52D
:10D97000186031B101200C46FFF7DAFEF8B102233E
:10D980002370144B186808B1002010BD0122022139
:10D99000FFF73AFF08B10728F7D10722022101203B
:10D9A000FFF732FF08B10728EFD100210A2208460D
:10D9B000FFF72AFF0028E7D00728E5D010BDFFF7C2
:10D9C000B7FE10B10B232370DBE72070D9E700BF4F
:10D9D000E82A0020E42A002090DF7047A5DF704786
:10D9E000B5DF704770B5002484B061F30F040023E5
:10D9F00061F31F446A4602A902940646039300930A
:10DA0000ADF80430FFF7E8FF044610B9204604B033
:10DA100070BD124B124DED1AED0801F055F92D04B1
:10DA200045F0010503460F493246284600F048FB01
:10DA3000BDF80020BDF8023052EA030103D00A49C4
:10DA4000284600F03DFBBDF80420002ADED0284621
:10DA5000064900F019FC204604B070BDA85F020022
:10DA6000D05F0200A8510200F451020034520200BB
:10DA700088B130B4FB220271084C016100234FF0E1
:10DA8000F71541F6FB320560C0F8064043818281FC
:10DA900030BC184670470E20704700BFF7001700D3
:10DAA00040B1A1F11703E02B02D80180002070479C
:10DAB000072070470E2070478288002A3CD110B59D
:10DAC0000388242B82B00C4611D80F2B30D9103B81
:10DAD000142B2DD8DFE803F06E932C2C2C2C2C2C3F
:10DAE0002C2C2C2C2C2C2C2C2C2C2C9C82003A2BCF
:10DAF00043D0552B1CD1C388C988A272172B38BFBD
:10DB000017238B4228BF0B4623811046FFF768FF7F
:10DB1000002840F08680E37A53B9236943B140F688
:10DB2000772122890091ADF8042069462046984764
:10DB3000A37A5BB902B010BD7047112840F089800C
:10DB4000237B627B01219A42A17242D3E1880020AB
:10DB5000FFF744FF48B31128ECD001F0B5F8444B6F
:10DB60004449024644481B1ADB081B0443F00100E9
:10DB700002B0BDE8104000F087BB4389C988226924
:10DB80008B4228BF0B46172B38BF172323814AB17E
:10DB9000E17A39B140F677210091ADF80430694659
:10DBA0002046904700236381C4E74FF4807363816C
:10DBB00002B010BD0B790B73C27B012A0CBF218808
:10DBC000C988228908BFE1808A4238D3627B9A42A1
:10DBD000AED219460020FFF705FFA9E70B69027ACC
:10DBE0004A73002BA4D000204DF67A218DF8050051
:10DBF00000918DF8042069462046984798E71F4910
:10DC0000C4F80610002241F6FB336281A38191E73C
:10DC1000017A237B994228BF19460020FFF7E2FED4
:10DC200086E701F051F8124B1549024612481B1ABB
:10DC3000DB081B0443F0010000F026FB6BE700202B
:10DC4000FFF7CCFE00287FF478AF0122237BE2723D
:10DC5000BCE701F039F8064B0649024606481B1A94
:10DC6000DB081B0443F0010000F00EFB237BADE753
:10DC7000D05F02008C520200A85F0200F70017007C
:10DC8000C0520200B0DF704766DF704760B159B123
:10DC90000378DE2B0AD009684160DE224FF6FF735D
:10DCA00002704380002070470E20704708207047A4
:10DCB00038B10378DE2B02D1418000207047082064
:10DCC00070470E20704700BFF9B170B5054684B0AB
:10DCD00050B10B78DE2B0C4606D180884B889842D9
:10DCE00014D02B88012B01D004B070BD2E7A012EE8
:10DCF000FAD16388A8889842F6D126720021FFF7EE
:10DD0000C3FF00284DD12072EEE770470B7AEBB9C4
:10DD10002B88112B34D0512BE4D1AB79022BE3D1DA
:10DD2000AA7B02F0FD0104292ED0052ADCD10022B5
:10DD30006946C1E901220092CA608DF80030FFF700
:10DD4000A1FF0028D0D063689847CDE70021FFF7F6
:10DD50009BFF034670B111280BD0636898472B884E
:10DD6000112B09D0512BBDD1A88863888342D4D010
:10DD7000BAE701232372F2E7AA8863889A42B3D1F3
:10DD80004FF6FF736380AFE769460022C1E90122C5
:10DD90000092CA604FF4C0728DF80030ADF80420D4
:10DDA000CDE7112804D0636804B0BDE8704018477F
:10DDB000267299E708B502F017FF0448042100F025
:10DDC00017FC034B01225A7108BD00BFF85F020027
:10DDD000B8260020064B074810B500221A7000F044
:10DDE00049FC044610B9044800F040FD204610BD2F
:10DDF000EC2A0020945F02002853020030B499B14D
:10DE00000D490E4D491BC90813D00D4C002302E0EB
:10DE1000013399420AD034F823208242F8D11846BF
:10DE200055F8300030BC7047044DF9E7002030BC95
:10DE300070470846F6E700BFF85F0200A85F0200DF
:10DE40008C270020094B013903EBC00303290BD8B1
:10DE5000DFE801F004020806042070470220704742
:10DE6000587970471879704700207047A85F020002
:10DE7000704700BF2DE9F0438B4CD4E901239A424F
:10DE800085B05DD00023C4F81834BFF34F8FA56868
:10DE9000EAB2D31C04EB830014F82330590718D5D9
:10DEA0006668037803F00303012B42D0022B03D1F1
:10DEB0004388023505EB9315EAB2D4F81814D31C45
:10DEC00004EB830029B9AE4239D914F823305B073B
:10DED000E7D404EB82026B1CDBB2D26804EB830351
:10DEE00002F00301DB680229CDE9012305F10206F6
:10DEF0002AD0012900F08A80D4F810543DB12B6853
:10DF000028469B689847EB681D68002DF7D1674845
:10DF1000674B6849C01AC008000440F0020000F0D6
:10DF200091FAD4E90130C01A18BF012005B0BDE84C
:10DF3000F08303880235C3F383131D44BCE7A66056
:10DF4000002005B0BDE8F083BDF806305A48C3F3A1
:10DF500089184546502D28BF502565F38F1305F1CC
:10DF60000801ADF8063000F087FB07460028C3D053
:10DF700000F0CEFB0023082201A9384600F0F8FB90
:10DF8000F343DBB20133B5EB830F4FEA83097FD94B
:10DF9000F1B2A5EB0905033104EB81014A4638468D
:10DFA0000823EDB200F0E4FB444909F108032A46D6
:10DFB000384600F0DDFB08F1030806EB9806D4F8BC
:10DFC0001834D4F81054002B5ED165B1EB685A793F
:10DFD00028463946002A65D02B681B689847EB68AD
:10DFE0001D68002DF2D1384600F096FB00230DF19C
:10DFF00003008DF8033001F02DFBD4F8183403B979
:10E00000A6609DF8030001F04BFB8AE7BDF80420F1
:10E010002948C2F38313062B28BF062363F3891212
:10E02000023303F00F018900ADF8042000F024FB57
:10E03000074600283FF460AF00F06AFB0023082287
:10E0400001A9384600F094FBBDF8043013F4707F4A
:10E05000B5D06FF001094FF00808A9EB0509F1B23E
:10E0600003314346042204EB8101384600F080FB73
:10E07000BDF804300136C3F3831309EB0602934263
:10E0800008F10408EBD89AE7384600F045FB48E76A
:10E09000F1B203312A4604EB81010823384600F02F
:10E0A00067FB88E71D6890E7EC2A0020B05F02005C
:10E0B000A85F020010530200945F0200F82A0020BB
:10E0C0002DE9F04FDFF8BCB189B0002406460DF110
:10E0D00013000193894692468DF8134001F0BAFA75
:10E0E000DBF80830DBF8047003F58073DB1B032BCF
:10E0F00000F2C480CDE902760BF21C450BF5836873
:10E100000BF2144419E0BDF81620C2F38912033251
:10E11000360C07EB9207204602F0B6FC3146002889
:10E1200039D02846CBF8087002F08AFCDBE90123DD
:10E1300003F580739B1A032B5CD80121284602F05B
:10E140007FFC404602F094FC204602F091FCDBF894
:10E150000870FAB2D11C0BEB810C1BF821104B0795
:10E1600001F0040027D40BEB82017A1CC9680591E9
:10E17000D2B20BEB820201F003000128D66807F14E
:10E18000020730D00228BED0204602F07DFC0026D7
:10E1900031460028C5D12846C6E7BCF8027001EB1D
:10E1A0009717FAB2D31C0BEB830C1BF8230000F07B
:10E1B00004000028D7D09CF8003003F00303012BA3
:10E1C0000AD0022B07F1020102F10303E5D00BEBA9
:10E1D000830C0028EFD1C6E7BCF800300237C3F348
:10E1E00083131F44DDE7BDF81420C2F38312360CFD
:10E1F000174490E7DDE90276D3B2033385214BF86B
:10E20000231004329DF81300CBF8042001F048FAE3
:10E21000BB1CDBB20BEB8303019AC3F80CA0FB1C05
:10E22000DBB20BEB830300211548DA6002F0E6FB5A
:10E2300080F31001F300781C03F03803C0B2FAB287
:10E24000090443F081030BEB8000033243EA892386
:10E2500041EA1641C1604BF822309BF8003023B9E7
:10E26000FFF706FE09B0BDE8F08FFFF703FE0028B8
:10E27000F6D0FFF7FFFD0028F7D1F1E73A46BBE7FC
:10E28000082F0020EC2A00202DE9F04FDFF8B0B174
:10E2900087B0002306460DF10B008DF80B30CDE959
:10E2A000001201F0D7F9DBE9018303F58073A3EBDA
:10E2B0000803022B00F281800BF21C450BF58367EB
:10E2C0000BF214441AE0BDF80E20C2F38912033297
:10E2D0004FEA114A09EB9209204602F0D5FB51465C
:10E2E00000283AD02846CBF8089002F0A9FBDBE9D9
:10E2F000012303F580739B1A022B5FD80121284666
:10E3000002F09EFB384602F0B3FB204602F0B0FB61
:10E31000DBF80830DAB2D11C0BEB810C1BF82110B2
:10E3200001F00400490728D40BEB82015A1CC9688C
:10E330000391D2B201F003000BEB82020128D168F5
:10E3400003F1020931D00228BDD0204602F09CFB27
:10E350004FF0000A51460028C4D12846C5E7BCF852
:10E3600002300EEB9313DAB2D11C0BEB810C1BF8CD
:10E37000211001F004000028D6D09CF8001001F014
:10E38000030101290AD0022903F1020E02F103015F
:10E39000E5D00BEB810C0028EFD1C5E7BCF80020DD
:10E3A0000233C2F383121344DDE7BDF80C20C2F33D
:10E3B00083124FEA114A91448EE74246D3B20333A7
:10E3C00045214BF8231003329DF80B00CBF80420B5
:10E3D00001F066F908F10203DBB20BEB8303019A4B
:10E3E0001648DA60002102F009FB80F31001F30007
:10E3F000009A03F0380343F0410308F1010043EAB7
:10E400008223C0B25FFA88F209040BEB800003326A
:10E4100041EA1641C1604BF822309BF8003023B925
:10E42000FFF726FD07B0BDE8F08FFFF723FD0028BA
:10E43000F6D0FFF71FFD0028F7D1F1E7082F0020E5
:10E44000EC2A00202DE9F04FDFF8A0A187B00023CF
:10E4500006460DF10B008DF80B30019101F0FAF832
:10E46000DAE9018303F58073A3EB0803012B00F2C3
:10E4700081800AF21C450AF583670AF214441AE007
:10E48000BDF80E30C3F3891303334FEA11490BEB88
:10E49000930B204602F0F8FA494600283AD0284665
:10E4A000CAF808B002F0CCFADAE9012303F5807368
:10E4B0009B1A012B5FD80121284602F0C1FA384689
:10E4C00002F0D6FA204602F0D3FADAF80830DAB2CF
:10E4D000D11C0AEB810C1AF8211001F00400490745
:10E4E00028D40AEB82015A1CC9680391D2B201F008
:10E4F00003000AEB82020128D16803F1020B31D03C
:10E500000228BDD0204602F0BFFA4FF0000949466C
:10E510000028C4D12846C5E7BCF802300EEB93139F
:10E52000DAB2D11C0AEB810C1AF8211001F00400B8
:10E530000028D6D09CF8001001F0030101290AD070
:10E54000022903F1020E02F10301E5D00AEB810C6E
:10E550000028EFD1C5E7BCF800200233C2F38312D4
:10E560001344DDE7BDF80C30C3F383134FEA1149C0
:10E570009B448EE74246D3B2033305214AF8231069
:10E5800002329DF80B00CAF8042001F089F800213E
:10E59000154802F033FA80F31001F300019A03F0FA
:10E5A000380343F0010308F1010043EA8223C0B2BB
:10E5B0005FFA88F209040AEB8000033241EA16414F
:10E5C000C1604AF822309AF8003023B9FFF750FCB6
:10E5D00007B0BDE8F08FFFF74DFC0028F6D0FFF73D
:10E5E00049FC0028F7D1F1E7082F0020EC2A002091
:10E5F00030B4154DD5F81014044679B100200B46FF
:10E6000001E01B685BB1DB681A798242F9D1013005
:10E610000A28F4D14FF0FF3030BC70470846E36859
:10E620001871D5F810344BB1DA68E36812681A60D3
:10E63000D5F81034DB681C6030BC7047C5F8104456
:10E64000E268136030BC7047EC2A002038B5084BF4
:10E65000D3F8104401251D704CB1E3685D71236847
:10E6600020465B689847E3681C68002CF5D138BDEC
:10E67000EC2A002002F014BA2DE9F041078ACE1CE2
:10E68000043F3E440546B6FBF7F602F027FA0028A1
:10E6900034D0F6B24FF48073013E04468380C780C5
:10E6A00005602CD003464FF0000807E0627946452C
:10E6B00002F1010262713860056020D028461F46D1
:10E6C00002F00CFA08F1010803460028EED1677940
:10E6D000791E17D02246013399421268FBD1D2F835
:10E6E00000805FB12668002501E034463668214687
:10E6F0004046013502F01AFAAF42F6D8002420460F
:10E70000BDE8F0812068214602F010FAF6E700BF6C
:10E710000121043002F094B92DE9F04101210446B1
:10E72000043002F099F910F0FF0301D0BDE8F08148
:10E730006779791E16D02246013399421268FBD1BF
:10E74000D2F80080002FF1D02668002501E0344681
:10E75000366821464046013502F0E8F9AF42F6D866
:10E76000BDE8F08120682146BDE8F04102F0DEB945
:10E770002DE9F8438846C788417907FB01F1043940
:10E7800002EB030C1E1D6145154638BFCD1AB7427A
:10E790000446B6FBF7F207FB126002D8013A246880
:10E7A000FCD13E1AAE4228BF2E469DB14FF0000963
:10E7B0000430AD1B324608EB0901204406F0E0F9B5
:10E7C000AF42B14424683E464FF0000028BF2E46B9
:10E7D000002DEDD1BDE8F8832DE9F8430446C78844
:10E7E000407907FB00F0043802EB030C1E1D604566
:10E7F000154638BFC51AB7428846B6FBF7F207FB85
:10E80000126102D8013A2468FCD17E1AAE4228BFB8
:10E810002E469DB14FF0000904312144AD1B324614
:10E8200008EB090006F0ACF9AF42B14424683E465B
:10E830004FF0000128BF2E46002DEDD1BDE8F88332
:10E84000064A074B10B5002414701C60BFF35F8F9D
:10E850000449054800F022FA204610BD7C30002013
:10E86000803000203453020074300020826800237E
:10E87000936082681361826853618268D3608268A2
:10E88000536082681360704710DF704730B5394DB0
:10E89000394985B0012302A82B7000F0FFF9039BD2
:10E8A00023B90FE000F004FA039B5BB1D3E9003118
:10E8B00000209847034602A8002BF3D100242046ED
:10E8C00005B030BD2D4902A800F0E8F9039B4BB11B
:10E8D000D3E900310020984702A800F0E9F9039B32
:10E8E000002BF5D1264B02A81A68019200238DF85F
:10E8F000083000F0AFFE234901A8FFF7C5FF224A08
:10E90000B0FA80F304465B099DF80800137000F02C
:10E91000C7FE002CD3D11D4B1D491C702C7091F8E3
:10E920001623EC2352091341DB071DD5194B9A68B6
:10E93000AAB94FF480030B60104902A800F0AEF9A9
:10E94000039B002BBAD0D3E900310120984702A8DD
:10E9500000F0AEF9039B002BF5D10024AFE71A6855
:10E9600042F480021A60E7E742F2020000F0B4FBD2
:10E97000E2E700BF843000206453020058530200D5
:10E9800078530200F9F00100863000208530002025
:10E9900000E100E040310020034B1B780BB9FFF78A
:10E9A00075BF0820704700BF8630002000B583B0D7
:10E9B0000849684600F072F9019B43B1D3E9002091
:10E9C0009047684600F074F9019B002BF6D103B024
:10E9D0005DF804FB4C53020060DF704769DF70474D
:10E9E00061DF704730B5154DADF5017D4FF4FA7418
:10E9F0000DF1020103A8ADF80240FFF7F1FF88B95D
:10EA0000294601A800F04AF9029B002BF0D0D3E977
:10EA1000003103A8984701A800F04AF9029B002B97
:10EA2000F5D1E5E7052802D10DF5017D30BD0DF5E5
:10EA3000017DBDE8304000F04FBB00BFFC55020037
:10EA4000024B1B780BB1FFF7CDBF7047873000201A
:10EA5000002900F0C18030B5604B0B6085B00546E1
:10EA60000C460C22002101A805F0DAFF01238DF8E5
:10EA7000063022688DF80450062301A92020ADF845
:10EA80000830FFF7ABFF002850D10C22002101A86D
:10EA900005F0C6FF012322688DF8053001A940204A
:10EAA000FFF79CFF002840F089800C22002101A87C
:10EAB00005F0B6FFF72322688DF8045001A9232042
:10EAC000ADF80630FFF78AFF002869D10C2200213B
:10EAD00001A805F0A5FF012022688DF8040001A916
:10EAE000FFF77CFF00284DD10C22002101A805F082
:10EAF00097FF4FF4B0632268019301A9A120FFF7AB
:10EB00006DFF88BB0C22002101A805F089FF9DF84C
:10EB1000043022686FF3000301A9A0208DF80430AF
:10EB2000FFF75CFF80B9002005B030BD00F0CCF8E5
:10EB30002B4B2C4902462C48181AC008000440F000
:10EB40000100FFF7A1FBA0E700F0BEF8244B274926
:10EB5000024625481B1ADB081B0443F00100FFF79F
:10EB600093FB002005B030BD00F0AEF81C4B2049EF
:10EB700002461D48181AC008000440F00100FFF7C3
:10EB800083FBBFE700F0A0F8154B1A490246164870
:10EB9000181AC008000440F00100FFF775FBA3E756
:10EBA00000F092F80E4B144902460F48181AC0089C
:10EBB000000440F00100FFF767FB87E700F084F8EE
:10EBC000074B0E4902460848181AC008000440F0D6
:10EBD0000100FFF759FB68E70E2070470826002068
:10EBE000E05F02007C530200A85F0200F8540200BC
:10EBF000A45402005854020010540200C4530200EE
:10EC0000F8B504460768FFF7E7FE2368BB420546F0
:10EC100005D825BB1A4B01221A702846F8BD194B9E
:10EC2000194E1A49F61AF608360446F0020630461E
:10EC3000FFF708FC236816493A463046FFF740FACA
:10EC40004FF080532268D3F80C3112499B0203F134
:10EC500000539A1A3046FFF717FB002DDAD02846EA
:10EC600000F032F8084B0C49024606481B1ADB0834
:10EC70001B0443F00100FFF707FB2846F8BD00BF67
:10EC800087300020A85F0200E05F02004C550200C0
:10EC90007C550200B0550200DC55020001600B6893
:10ECA00043604A68934208BF00234360704700BF37
:10ECB000436843B1026891680B44436052689342D1
:10ECC00004BF0023436070470E49A1F5947205E02C
:10ECD00052F83330984238BF614607D28B1A1B1165
:10ECE000914202EBC30CF3D80748704702D90CF1EC
:10ECF0000802F3E7DCF80400034B002808BF1846BD
:10ED0000704700BF285B0200285B020038B5174B34
:10ED10001D783DB3164A1168C0B200230C4604E0CA
:10ED20000133AB4204F108041CD011F833209042A7
:10ED3000F6D102F007FB6378A3F10103B3FA83F382
:10ED40005B09834200D038BD0A4AD2E9003213433E
:10ED5000F9D1094B094819680022BDE83840490833
:10ED600000F0DEBB00231B78FFDE00BFB4300020C4
:10ED7000B8300020A8300020B0300020C02600208D
:10ED80002DE9F047DFF86092DFF860A299F80030D3
:10ED900082B0002B4FD0DFF85882904F0024D8F873
:10EDA000005015F8340002F0CDFA15F8346005EB88
:10EDB000C40572086B78B95CA3F10103B3FA83F35D
:10EDC000F5074FEA531340F1A2800D09042D00F21C
:10EDD0009B80DFE805F0033847544E00834240F043
:10EDE00093800F20102301400B43BB540DF107000B
:10EDF00000238DF8073000F02DFC0122A6F120033E
:10EE0000C6F1200122FA01F102FA03F30B43DAF80A
:10EE100000109DF80700B2401143DAF80420CAF848
:10EE200000101A43CAF8042000F03AFC99F80020B8
:10EE300001349442B3DBDAE90032134340F0C3807B
:10EE400002B0BDE8F087181AB0FA80F0400943011B
:10EE50000F2008400343BB5499F80020013494422A
:10EE60009DDBE8E783424FF00F0040F0AA8030239B
:10EE70006AE0834240F0A3800F20302396E0834273
:10EE800042D00F20402391E0834200F09580F02390
:10EE900099F800500B40BB54A5B1D8F800000023EE
:10EEA000024603E0AB4202F108020BD010F8331027
:10EEB000B14203F10103F5D122B1536813B100212E
:10EEC0003046984700230DF107008DF8073000F019
:10EED000C1FB0122A6F12003C6F1200122FA01F1B3
:10EEE00002FA03F30B43DAF800109DF80700B24072
:10EEF00021EA0201DAF80420CAF8001022EA03022B
:10EF0000CAF8042000F0CCFB99F80020A6E701F035
:10EF10000F05042DF8D80FF2080C5CF825F000BF9F
:10EF2000A1EF010093EF01003FEF010035EF010079
:10EF300089EE01008342E7D0F020042336E08342CB
:10EF40004FF0F00031D1032301400B43BB5499F83B
:10EF50000020002A3FF46FAFD8F800500023294664
:10EF600004E0934201F108013FF478AF15F8330053
:10EF7000B04203F10103F4D100293FF46FAF4B68B5
:10EF8000002B3FF46BAF30460121984799F80020E1
:10EF900064E7181AB0FA80F040094300F02058E7FF
:10EFA0008342B1D1F02001231DE7012301400B432F
:10EFB000BB5499F8002051E7F0200323F6E70F2314
:10EFC00066E71023F2E7064B064819680022490855
:10EFD00002B0BDE8F04700F0A3BA00BF88300020BF
:10EFE000B0300020C0260020B4300020A83000201F
:10EFF000B8300020092A3FD9F0B583B01446054641
:10F000000E4602F01DF888B3204B214A1E70214B9A
:10F010001560002120481C60202205F001FD1F4BD7
:10F0200000200021741EC3E90001E4B236B31C4F76
:10F0300005EBC404032602E0A5421FD01C469DF840
:10F04000063094F802C020788DF8046023F007039E
:10F050003A4601A98DF806308DF805C001F0FAFF97
:10F06000A4F108030028E7D003B0F0BD01F08EFF43
:10F070000028C9D003B0F0BD07207047094A0A48EC
:10F08000002103B0BDE8F04000F032BAB4300020F7
:10F09000B8300020B030002088300020A830002098
:10F0A0000DED010081ED01003C5B020070B5084DE3
:10F0B0002B785BB1074E00243368012113F834002C
:10F0C00002F0C8F82B780134A342F5D8002070BDB7
:10F0D000B4300020B830002000B585B003460021D0
:10F0E00001AA44F20100CDE90111039300F004F8F4
:10F0F00005B05DF804FB00BF10B572B6FFF7A6FAC5
:10F10000FEF7B8FE0028FBD1104B114C1149E41A50
:10F11000E408240444F00100FFF794F90E4BD3F8FF
:10F12000F030DB0700D500BE0C4944F00200FFF7C9
:10F1300089F9BFF34F8F0849094BCA6802F4E062AE
:10F140001343CB60BFF34F8F00BFFDE7A85F020002
:10F15000B05F02004C5B020000ED00E0585B020073
:10F160000400FA0530B48D688468C268CB68A54293
:10F1700093412CBF0120002030BC704730B5344B88
:10F180001D7883B01DB90025284603B030BD044664
:10F190000028F8D02F4801F075FB2F4B1A685B68E8
:10F1A00080182E4AD2E9001243F10003884273EB23
:10F1B000020203D210F1807043F10003D4E902127D
:10F1C000884293410AD2B2F1FF3F08BFB1F1FF3F3D
:10F1D000D9D02348214601F0ADFED5E700230DF13B
:10F1E00007008DF8073000F035FA23692BB94FF08E
:10F1F000FF324FF0FF33C4E902239DF8070000F00F
:10F200004FFAD4E90530984700230DF107008DF837
:10F21000073000F01FFA2369ABB1D4E90212B2F152
:10F22000FF3F08BFB1F1FF3F0DD05B1842F1000274
:10F230009DF80700C4E9023200F032FA084821467E
:10F2400001F078FEA0E79DF8070000F029FA9AE7A0
:10F2500038310020E0260020303100202831002005
:10F26000685B02002DE9F04F83B0814601F0DEFAC1
:10F2700040B17C4AD2E9003113F1807341F10001C1
:10F28000C2E900310021484601F0ECFA764D30B178
:10F290002B6823B12868FFF771FF00232B60012141
:10F2A000484601F0DFFA002840F0C4806F4801A909
:10F2B00001F062FB00283AD06C4C4FF0FF3A4FF05F
:10F2C000FF3B09E033B301A9204601F087FB01A908
:10F2D000204601F051FB50B30378012B11D0022BD3
:10F2E000F0D1634E304601F039FE30B1C0E902ABD7
:10F2F000304601F033FE0028F8D15E4B01221A702F
:10F30000E1E72B684168994200F09180584801F08C
:10F310002FFED8E74168D1E90223B3F1FF3F08BFD0
:10F32000B2F1FF3FCFD0524801F004FECBE7504E80
:10F33000514FDFF83081304601F016FE002853D0DF
:10F34000D0E90223B3F1FF3F08BFB2F1FF3F6AD01B
:10F35000296891B12968D1E9020182428B4159D2D1
:10F360002B68D3E90223B3F1FF3F08BFB2F1FF3F9F
:10F3700003D02968304601F0DDFD304601F0EEFD96
:10F3800004463846D4E902AB01F07CFA3B4BD8F88E
:10F390000410D3E900E2D8F80030C31841F10001AD
:10F3A000734571EB020C03D213F1807341F100013C
:10F3B000BAEB03036BEB010B012B7BF1000B1BDBA7
:10F3C000B3F5350F29D252464FF496030021384643
:10F3D00001F0A2F9C0B10D2812D0002330462B60F5
:10F3E00001F0C2FD0028ABD12B689BB9484603B0A1
:10F3F000BDE8F04F01F062B90021384601F026FA6D
:10F400002046FFF7BBFEE8E72B6813B9484601F03A
:10F4100051F92C6003B0BDE8F08F384601F032FAA4
:10F42000174A0244D0E7304601F098FD83E70023F5
:10F430002B6048E7104801F025FA0A4B1A685B6810
:10F4400080180E4AD2E9004143F10003A04273EB59
:10F45000010103D210F1807043F10003C2E90003FF
:10F4600024E700BF303100203C310020C0300020B4
:10F47000685B020038310020E0260020283100209F
:10F48000FFFFB40010B5134B13491C68134882B03A
:10F4900008235822019401F015FA044610B12046C1
:10F4A00002B010BD0E4A0F4801A901F09FF80446B2
:10F4B0000028F4D10B48012101F0AEF901231946CF
:10F4C000094A084801F0FEF8084B012220461A704C
:10F4D00002B010BD805B0200D0300020C0300020A0
:10F4E00065F20100E0260020FFFF7F003831002098
:10F4F0006AB19FED097BA1F101010368B1FA81F1C5
:10F50000490983ED027BC3E90412002070470720FC
:10F51000704700BFAFF30080FFFFFFFFFFFFFFFF5B
:10F52000F0B583B00446002601A817460D468DF8B5
:10F53000046000F08FF8D4E90223B3F1FF3F08BF65
:10F54000B2F1FF3F06D09DF8040000F0A9F8304664
:10F5500003B0F0BD1C4801F095F91C4B1C4A19681A
:10F560005B684018D2E9001243F10003884273EB54
:10F57000020220D3281843F10003A060E3609DF845
:10F58000040000F08DF82369A76103B125611148DB
:10F5900001A901F0AFF9034650B100220D481A70DD
:10F5A0005C6001A901F0D8F950B9002003B0F0BDAA
:10F5B000042003B0F0BD10F1807043F10003D9E7DF
:10F5C000014801F063F9F0E7E02600203031002027
:10F5D00028310020C030002030B583B0044600251B
:10F5E00001A88DF8045000F035F8D4E90223B3F1F6
:10F5F000FF3F08BFB2F1FF3F1DD04FF0FF334FF088
:10F60000FF32C4E902239DF8040000F049F80F48D6
:10F6100001A901F06FF9034650B101220B481A709D
:10F620005C6001A901F098F960B9002003B030BD19
:10F63000042003B030BD9DF8040000F031F82846E6
:10F6400003B030BD024801F021F9EEE7C0300020E0
:10F65000E026002070B4EFF3108472B60D4A936870
:10F66000ABB9012191600C490C4ED1F88050354066
:10F670001560C1F88060D1F8845055604FF0FF32BA
:10F68000C1F88420037004B962B670BC70470123CE
:10F69000F8E700BF4031002000E100E0FC06FFBDBC
:10F6A000094B9A687AB170B910B4EFF3108172B651
:10F6B000064A1C6814605C685460986001B962B6C0
:10F6C0005DF8044B704770474031002000E100E0D6
:10F6D00072DF704773DF704774DF7047F8B5044618
:10F6E00000F1EA0681700D4607220021304605F040
:10F6F00097F9E38813B1A378012B61D0E379002B4C
:10F700005BD194F8EB30002B64D194F8EC30002BF3
:10F7100060D194F8ED30002B5CD194F8EE30002BE2
:10F7200058D194F8EF30002B54D194F8F030003BCE
:10F7300018BF0123013D032D00F23681DFE805F0FB
:10F7400002060A0EA279002A40F00681E279002A18
:10F7500040F0E180237A002B40F0F880637A002BA0
:10F7600040F0DF80A370002384F8F33004F13C05FF
:10F7700018220021284605F053F9E36A591E012298
:10F78000022928BF134684F8513094F8243084F8B5
:10F790003C2033B1A36A591E022928BF134684F8BE
:10F7A0005230A378002284F85020042B00F2F1801C
:10F7B000DFE803F046A250711200A378022BA0D11B
:10F7C000636B002B00F0E880012284F8F120082010
:10F7D000984796E70123ADE7D4E90712637961649E
:10F7E000A4F84820002B00F0C18094F8F230002BE0
:10F7F00040F0BC8094F8F430002B00F0B780022376
:10F80000B4F8D810D4F8D40084F85030012202F0B3
:10F81000A9FB08B10423037004F1D40704F15406D2
:10F820002A4639463046FFF753FF002840F0B7809C
:10F83000062384F83130A378C4F8E4701BB19EE04D
:10F84000002384F83130636B13B194F8310098478A
:10F850000020F8BDD4E903320221C4E91063A4F802
:10F8600048200323002284F83110C4F8E42084F8EF
:10F870003C30002104F154062A463046FFF728FFA9
:10F880000028E6D194F8301094F85400FFF722FFD6
:10F890000028D8D0F8BDD4E9051263796164A4F8D2
:10F8A0004820002B6ED094F8F230002B6AD194F8E7
:10F8B000F430002B66D00223B4F8D810D4F8D4006A
:10F8C00084F85030012202F04DFB08B1042303708C
:10F8D00004F1D40704F154062A4639463046FFF7AE
:10F8E000F7FE00285BD1052384F83130A378C4F8F3
:10F8F000E470002BA7D042E000230122C4E910638A
:10F9000084F83120C4F8E4300222802384F83C20BB
:10F91000A4F84830ADE7002B3FF41CAF0223A370DE
:10F9200021E7626B0423A370002A3FF41CAF6379C4
:10F93000002B3FF418AF94F8F230002B7FF413AF94
:10F940000123A4F8F330072090470FE7626B0323ED
:10F95000A370002AEBD106E794F82420002A7FF454
:10F96000F5AE002B3FF4F6AE0123FBE6042204F1D2
:10F97000D40384F83120C4F8E43004F15406D4F8F8
:10F98000E41079E7032204F1D40384F83120C4F8A9
:10F99000E43004F15406F2E784F8F130B1E6A378DC
:10F9A000002B3FF450AFEAE70023A370DBE600BF73
:10F9B00080F83010704700BF002973D02DE9F04166
:10F9C0000446002870D091F87A300D46002B62D1A1
:10F9D000D5F8A030042B62D0D5F89C30042B5ED033
:10F9E0000027A77005F1780EBEE80F0004F1040CA3
:10F9F000ACE80F00BEE80F00ACE80F009EE807007F
:10FA00008CE8070084F83070D5F8A4306363D5F82B
:10FA1000A830A3634FF6FF7804F1D40639460722D5
:10FA2000C4F8E460A4F8E88004F1EA0004F0F8FF08
:10FA300023780BB984F85480224604F155011F261F
:10FA4000C4F8D410284622F8D86F02F079F838BBF1
:10FA5000224604F19301C4F8DC1005F13C0022F8C1
:10FA6000E06F02F06DF8D8B9D4E905230125A4F8B8
:10FA700048304FF48073C4E91002014684F83C50CA
:10FA800004F13C0204F15400A4F85030FFF720FECA
:10FA900030B9257004E091F89830002B98D00720F9
:10FAA000BDE8F0810E2070470E20F9E703780BB116
:10FAB000FFF714BE0820704710B50388112B0C46C1
:10FAC0000BD0262B22D0102B00D010BDC37B012BD6
:10FAD000FBD18388A1F8E83010BD002381F8F23013
:10FAE0008288B1F8E8309A42EFD10B79002BECD143
:10FAF0000B7813B301212046FFF7F0FD0028E4D076
:10FB0000A36B002BE1D0BDE810401847037A013BFE
:10FB1000012BDAD80B7889787BB1094B0131A3FB33
:10FB2000012303F4FE7202EB9303C91AC9B2204603
:10FB3000FFF7D4FD0028E3D110BD0820E0E700BFA7
:10FB4000CDCCCCCC38B5044690F85400FFF7C4FDBA
:10FB500000230122B4F8D810D4F8D40084F8F2209D
:10FB600084F8F43084F8503002F0FCF908B1062330
:10FB7000037004F13C0204F1D40104F15400FFF7D6
:10FB8000A7FD054648B92378A17843B12046FFF781
:10FB9000A5FD10B1A36B03B19847284638BD0820D6
:10FBA000F8E700BF75DF704776DF70477ADF704790
:10FBB0007BDF704770B51D4D2B8884B2A34282B0A5
:10FBC00011D11B4E297A327B91420ED3337C002215
:10FBD0002A72F3B9736933B100228DF80420ADF8AD
:10FBE000064001A8984702B070BD05F10A01184609
:10FBF000FFF7D8FF40B11128F5D0B369002BF2D040
:10FC000002B0BDE8704018472B7A01332B7202B066
:10FC100070BD3B212046FFF7C7FF30F00803D9D065
:10FC2000B369002BD6D09847D4E700BF70310020CD
:10FC30005431002070B50288122A82B003466ED07B
:10FC400015D8102A30D0112A0FD16B4C8288238806
:10FC50009A420AD16068FFF7BFFC18B1674B9B69F5
:10FC600003B198474FF6FF73238002B070BD502A4E
:10FC7000FBD1624DC188EA899142F6D1028A022AFB
:10FC8000F3D15D4C828826889642EED1123000F086
:10FC900041FA002800F09B80637A002B40F09E80A0
:10FCA000D5E9013132466AE090F80FC08288BCF194
:10FCB000010FDAD1504C20884FF6FF7188427FD176
:10FCC0004F4D22800021217203CDC4F80A00C4F8F0
:10FCD0000E10588A6589B4F80CE0E189854260D835
:10FCE00086455ED340F2F315A9429B8A94BF481A19
:10FCF000481B984255D82944994252D33F4D84F825
:10FD000009C0EB89002BB0D16B69002BADD001216C
:10FD10008DF80410ADF8062001A89847A5E7364CE9
:10FD2000828821889142A0D14089B4F80AC0B4F8F1
:10FD30000CE0E58984451DD886451BD340F2F31CB1
:10FD400065459B8994BF681BA5EB0C00984211D8B0
:10FD500065449D420ED3294B5B694FF4807222812A
:10FD6000002B82D001228DF80420ADF8061001A8E6
:10FD700098477AE7214D002161726B68A968207A63
:10FD8000002808BF19466068FFF7CAFB00283FF447
:10FD90006CAFAB69002B3FF468AF02B0BDE87040B8
:10FDA0001847164DEB8900216172002B7FF45DAF7F
:10FDB00069686068FFF7B4FB00283FF456AFE8E7D6
:10FDC0000E4B9B69002B3FF450AF0420E5E76068C1
:10FDD000FFF702FC00283FF448AFDAE76B69002226
:10FDE0002272002B3FF441AF01228DF80420ADF8C0
:10FDF000066001A8984738E7703100205431002090
:10FE00004C31002070B3F8B586460768164E174D82
:10FE10000446BEE80F00B446ACE80F009EE80700B9
:10FE200035608CE80700BFB13846FFF7BFFE90B9D8
:10FE300023681868596803C50D4B0E490E4A1846C9
:10FE40004FF6FF7440F8041F00211C80FFF750FBA1
:10FE5000002818BF0320F8BD2846FFF7A9FE002898
:10FE6000EAD0F8BD0E207047543100204C310020FC
:10FE70007031002088310020B5FB0100A8DF7047F9
:10FE8000ADDF7047AEDF704762DF704700295AD0A0
:10FE900070B504468AB038B10388502B0D4653D054
:10FEA000572B39D0102B01D00AB070BD81886869FA
:10FEB000002601AA019602F07BF8082231460DEBDC
:10FEC000020004F0ADFD02232989A088CDF80CD0F2
:10FED00002AA0293FFF7D4FF0028E5D1AB69002BFB
:10FEE000E2D0039800F016F90028DDD0019B0BB199
:10FEF00001221A701822002104A804F091FDA188A3
:10FF0000019A02238DF81030AB690595ADF81810F1
:10FF1000079204A89847C7E78188686902AA02F097
:10FF200047F80028C0D1029B1B78002BBCD0AB69DE
:10FF3000002BB9D00146182204A804F071FDA18855
:10FF4000029A0123DEE770478188686902AA02F0FD
:10FF50002FF81822002104A804F062FDE388298903
:10FF6000A288ADF818209942029A0595079210D000
:10FF7000AA899A4298D1AB69002B95D0228AADF814
:10FF80002420002112348DF81010089404A89847FA
:10FF90008AE7268A022EEBD1002A85D004F11200CE
:10FFA00000F0B8F8029B38B101221A70AB698DF8E5
:10FFB0001060002BADD177E703261870F6E700BF7D
:10FFC000F0B5364B0D4604460FCB8FB00DF1080C43
:10FFD0008CE80F00002C5ED0002D5CD02B68A36154
:10FFE00021466046FFF750FF08B10FB0F0BD224632
:10FFF000012512F8023B8DF8063001A92846ADF81C
:020000022000DC
:100000000450FFF73BFF0028EFD10146202206A84D
:1000100004F006FD22460223ADF8183012F80C3B1E
:100020008DF81A30BDF824301D4E6088079623F4F1
:100030004F6323F00F0343F440632B4340F2011757
:1000400006A9ADF82430ADF8297000F067F8002853
:10005000CBD10146202206A804F0E2FCBDF82430F2
:100060006088079623F4875323F01F03224643F446
:1000700080532B43ADF8243012F8043B8DF81A302E
:1000800006A90323ADF829708DF82B50ADF8183070
:1000900000F044F8A9E70E200FB0F0BD8C5B020021
:1000A000F400010060B3F0B587B00E461746044671
:1000B00001AA406919461D4601F07AFFD8B94FF6EA
:1000C000FF739D4219D0019BBBB11B78EBB13B88FC
:1000D000F42B17D80146102202A804F0A1FCA38833
:1000E000ADF8083002A901232846CDE904768DF841
:1000F0000A30FFF7C7FE07B0F0BD052007B0F0BD1E
:100100000E207047072007B0F0BD0820F3E700BFBE
:10011000AADF7047008800F001007047F0B58B78C7
:1001200091B0012B38BF01230C468DF80E300546E7
:100130000B88ADF80C30164600210322684604F007
:100140006FFC637C0022013B8DF80020042B09D852
:10015000DFE813F0CF00D300D7000500DB00122347
:100160008DF80030A37C0022013B8DF80120042B88
:1001700009D8DFE813F0CE00D200D6000500BA009F
:1001800012238DF80130237D217B013303F003031B
:1001900041EA4301E37B41EAC301237C41EA0311C5
:1001A0009DF8023001F01F0123F01F0319438DF861
:1001B00002101C22002109A804F032FC637B13F01A
:1001C000300F71D1637B8DF824301422A37B8DF81E
:1001D0002530002104A804F023FCA288A368ADF810
:1001E0001C2003AACDF814D004921BB10893E38815
:1001F000ADF81830A369002B34D001AF03220021E1
:10020000384604F00DFCA2691188ADF82C100023CB
:100210008DF804305388ADF82E3053680D970A934B
:10022000137B013B042B2BD8DFE803F093979B272C
:10023000870012238DF80530917B137A013101F08C
:10024000030143EA4103917AD27A43EAC10343EAC4
:1002500002139DF8062003F01F0322F01F02134330
:100260008DF80630E36903B10C93334604AA09A95B
:100270002846FFF74DFF11B0F0BD12238DF8043072
:10028000537B0021013B8DF80510042BD4D801A12C
:1002900051F823F0430302004B0302003303020032
:1002A000330202002B03020002AF03220021384672
:1002B00004F0B6FBE37C0022013B8DF80920042BFF
:1002C00007D8DFE803F0525E5A03560012238DF878
:1002D00009309DF80A300E97012262F342038DF82F
:1002E0000A3011238DF808306CE722238DF8013095
:1002F00049E711238DF8003034E721238DF80030D1
:1003000030E731238DF800302CE722238DF80030C0
:1003100028E711238DF8013035E721238DF80130CE
:1003200031E731238DF801302DE722238DF8053098
:1003300082E731238DF805307EE722238DF80430E3
:100340009EE711238DF8053076E721238DF80530DF
:1003500072E711238DF8043092E721238DF80430E1
:100360008EE731238DF804308AE711238DF80930A8
:10037000AFE722238DF80930ABE731238DF8093040
:10038000A7E721238DF80930A3E700BF074B1B5CCB
:100390001F2B8ABF064A4FF0A04203F01F03D2F87A
:1003A0000405D84000F00100704700BFA05B0200C8
:1003B00000030050064B1A5C1F2A86BF054902F055
:1003C0001F024FF0A04101239340C1F80835704748
:1003D000A05B020000030050064B1A5C1F2A86BF78
:1003E000054902F01F024FF0A04101239340C1F8DC
:1003F0000C357047A05B0200000300504FF0A04393
:100400004FF400104FF4800210B4C3F80C054FF401
:100410000044C3F80C254FF08072C3F80C454FF42C
:100420000020C3F80C254FF08052C3F80C054FF4A0
:100430000064C3F80C250849C3F80C454FF000428E
:10044000C3F80C2520204FF08042C1F80C05C3F8FA
:100450000C255DF8044B7047000300504FF0A0439B
:100460004FF400104FF4800210B4C3F808054FF4A5
:100470000044C3F808254FF08072C3F808454FF4D4
:100480000020C3F808254FF08052C3F808054FF448
:100490000064C3F808250849C3F808454FF0004236
:1004A000C3F8082520204FF08042C1F80805C3F8A2
:1004B00008255DF8044B7047000300500A4B185C98
:1004C0001F288ABF09494FF0A04100F01F00D1F852
:1004D00004350122824022EA03001340C1F80805D6
:1004E000C1F80C35704700BFA05B0200000300504C
:1004F000074B1B5C1F2B8ABF064A4FF0A04203F03C
:100500001F03D2F81005D840C04300F00100704727
:100510009C5B0200000300500E2805D0172814BF72
:100520004FF0FF300120704700207047014B185CEE
:10053000704700BF9C5B0200C10709D4830741BF1D
:100540004FF0A0430C22C3F83827C3F85C2770474C
:100550004FF0A043244910B403224FF40014C3F811
:100560005427C3F85827C3F83C27C3F86027C3F8BB
:100570004C27C3F87027C3F82C27C3F87C27C1F891
:100580001427C3F87827C3F80C454FF400424FF402
:100590008004C3F80C45C3F80C254FF080744FF469
:1005A0000022C3F80C45C3F80C254FF080544FF4DB
:1005B0000062C3F80C45C3F80C254FF0004420221C
:1005C000C3F80C45C1F80C254FF08042C3F80C2548
:1005D000820706D54FF0A0430C22C3F83827C3F892
:1005E0005C275DF8044B70470003005010B5294CA0
:1005F000437944F82320284C04EBC3031B79002BD8
:100600003BD103680A88C3F8082590F904308A783A
:10061000002B2ADB03F16043520103F56143D2B2A0
:1006200083F8002390F90430002B09DB1B494FEAC3
:10063000531C012203F01F0302FA03F341F82C308C
:100640004279174B44F832001648181A04EBC201DD
:10065000C0084FF0010C000481F804C040F0030012
:100660001149FDF7EFFE002010BD104903F00F0304
:1006700052011944D2B20A76D4E70A4B08480C4911
:10068000C01AC008000440F00200FDF7DBFE08209D
:1006900010BD00BFB0310020A831002000E100E013
:1006A000C05F0200A85F0200D05B0200FCEC00E02B
:1006B000AC5B0200036801221A60704703680122E4
:1006C0005A60704770B405684FF480348C40C5F8A8
:1006D0000843056801F1500CC5F848434FEA8C0CFB
:1006E00005681FFA8CFC002645F80C6083B055F8AD
:1006F0000C500195019D056801F5A87122F07F421B
:1007000045F821200268C2F8444313B10368C3F8D6
:10071000044303B070BC70472DE9F0474FF48037B5
:10072000994603688F40C3F848730368C3F8087399
:10073000036801F150060D4603EB810122F07F486A
:10074000D3F80435D1F84025C1F84035B600B6B22B
:10075000D21A03684FF0000A43F806A082B09B59F2
:10076000009322F07F42012A009B044645D0236873
:10077000D3F80465C3F84473A8EB060323F07F4362
:10078000012B05F5A87527D0226842F8258021683D
:10079000D1F80405A8EB0002C9F1FF13013A03F5F3
:1007A0007F4322F07F42934212D342B1C1F8447397
:1007B00023680020C3F8047302B0BDE8F08708F195
:1007C000010341F825302168D1F804359842EDD075
:1007D0000D2002B0BDE8F087236808F1010243F85C
:1007E00025200C4B4FF4806043F0010398472168AB
:1007F000D1F804359E42D9D0EAE7064B4FF4806029
:1008000043F001039847236843F806A09B590193DE
:10081000019BACE7F05B020002680223C2F844339C
:1008200011B10268C2F80433704700BF0368D3F8FF
:10083000040100B97047002282B0C3F80421D3F844
:1008400004310193019B012002B0704702684FF40C
:10085000803303FA01F1C2F848130368C3F80813A0
:10086000704700BF50318900036889B2585800B9F9
:10087000704700225A5082B05B580193019B0120BF
:1008800002B070470368D3F80405704790F904304C
:10089000002B09DB5A09054803F01F0301214032F0
:1008A00001FA03F340F82230704700BF00E100E096
:1008B000024A034B10681B68184700BFA83100208C
:1008C000B031002099B110B4B2FBF3F403FB14244F
:1008D000A4B244B90160446084608281C38120462F
:1008E0005DF8044B704709205DF8044B70470E20FB
:1008F000704700BF10B483B050E8013F1FFA83FC7B
:10090000C489A4448489A44528BFACEB040C0489A1
:10091000A44502BFBFF32F8F002207E0CCEA030CEF
:1009200040E801C4002CE7D14FF001028DF803200C
:100930000193019C9DF803200C6032B1006810FA0D
:1009400084F003B05DF8044B704702F0FF031846D3
:1009500003B05DF8044B70470A884B889A4201D077
:100960000020704750E8012FC2EA024240E801230C
:10097000002BF7D10120704710B483B050E8023F3C
:100980001FFAA3FCC488A44502BFBFF32F8F002227
:100990000EE0C489A4448489A44528BFACEB040CB0
:1009A000C3EA0C4C40E802C4002CE7D14FF001022E
:1009B0008DF803200193019C9DF803200C6032B157
:1009C000006800EB144003B05DF8044B704702F080
:1009D000FF03184603B05DF8044B70470A884B8844
:1009E0009A4201D00020704750E8022FC2EA22420A
:1009F00040E80223002BF7D101207047034653E85B
:100A0000000F0A4643E8002C9CF0000FF7D1704716
:100A1000034653E8002F42EA010043E8000C9CF033
:100A2000000FF6D1704700BF034653E8002F02EADB
:100A3000010043E8000C9CF0000FF6D1704700BFA6
:100A4000034653E8002F02EB010043E8000C9CF042
:100A5000000FF6D1704700BF034653E8002FA2EB0A
:100A6000010043E8000C9CF0000FF6D1704700BF76
:100A70000346012253E8001F41EA020043E8000C4C
:100A80009CF0000FF6D170470346002253E8000F98
:100A900000EA020143E8001C9CF0000FF6D1704709
:100AA000D0B110B4D0E90112521A0468D2B2531E68
:100AB0002160DBB252B101680A6803F1FF3C541CAB
:100AC0000C6013705FFA8CF3FF2BF4D103680020E5
:100AD00018715DF8044B70470E20704730B583B035
:100AE000044600250DF107008DF80750FEF7B2FD12
:100AF000D4E900311A688A4210D9511E1960216860
:100B0000A368086812F801CC0A79E5681B1ADBB201
:100B1000208A9A4238BF0B7100FB0C559DF80700E4
:100B2000FEF7BEFD284603B030BD00BF30B5054618
:100B300083B00DF1070000230C468DF80730FEF757
:100B400089FD2A681368591C1160E9682A8A641AA9
:100B5000B4FBF2F41C709DF80700FEF7A1FD03B092
:100B600030BD00BF704700BF00B583B0044B009399
:100B7000044A402300F03AF803B05DF804FB00BFDC
:100B8000890B0200B431002022B32DE9F843134B46
:100B9000134E88461446032743F0010900252246D8
:100BA00008EB0501002000F05FFE034601224FF430
:100BB0007A40E41A1D4443B933784BB1C847013F2A
:100BC0004FF0010307D03370E9E73270002CE6D113
:100BD000BDE8F88370473770BDE8F883005C020019
:100BE000F4310020704700BF00F012BFF0B595B09F
:100BF000084600240E4617461D46FDF789FD1A9A41
:100C00000D922346082205A93046CDE909540897DC
:100C10008DF82C400C94FDF7DFFDDDE906219DF8F1
:100C200014308DF81140CDE9021203F00302012ABD
:100C300028D0022A04D03046FDF76EFD15B0F0BD75
:100C4000BDF81650C3F3C203C5F389158DF81030F3
:100C50000827082D2C4628BF08243B4622460EA90B
:100C60003046FDF7B9FD2D1B08AB02AA21460EA8A0
:100C7000274400F0DDF8002DEBD13046FDF74CFDA8
:100C800015B0F0BDBDF814100598C1F38312C3F37D
:100C9000C203C0F39525C1F383148DF810300EA95B
:100CA000304692000823FDF797FD08AB00932246DB
:100CB00002AB0EA9284600F045F83046FDF72CFDA2
:100CC00015B0F0BD70B5C38882B004460D461BBB9D
:100CD000237A052B1ED0627A7AB9134AA08852F87B
:100CE00023600021FDF78AF8104903463246284662
:100CF00002B0BDE8704001F08FB91946A088FDF739
:100D0000A1F80B4B0B4953F82020284601F084F939
:100D1000237AE2E702B070BD07490091074A08490B
:100D2000284601F079F9D3E7E05C0200405C02005C
:100D3000BC5C02003C5C0200345C0200145C0200FB
:100D40001C5C02002DE9F04385B01D460C9C00237D
:100D500094F80C90237380460E4617462146284689
:100D6000FFF7B0FF062F09D8DFE807F0042E343B69
:100D7000444F1F004146204601F04EF92B7A052BC7
:100D800005D06B7A5BB92749204601F045F920462A
:100D900001F036F984F80C9005B0BDE8F083224AE2
:100DA0002249204601F038F9EDE77369039333696E
:100DB0000293F3680193B3680093D6E90023414698
:100DC000204601F029F9D9E732684146204601F072
:100DD00023F9D3E7D6E900234146204601F01CF968
:100DE000CCE7B3680093D6E900234146204601F0E2
:100DF00013F9C3E7F3680193B3680093D6E90023BE
:100E00004146204601F008F9B8E733690293F368D8
:100E10000193B3680093D6E900234146204601F0D0
:100E2000FBF8ABE74C5C0200345C02003C5C020067
:100E3000082900D970472DE9F04F1D4683B00024E2
:100E40001B7B2C730E46074629461046904601939D
:100E5000DFF8D0B0DFF8D0A0FFF734FF05E03A5D4F
:100E6000013401F0D9F8082C09D0A6425146284691
:100E7000F5D85946013401F0CFF8082CF5D12449B2
:100E8000DFF8A8B0234CDFF8A8A0284601F0C4F88A
:100E90004FF0000917E017F80910481C7E294FF0A1
:100EA0002E02C0B206D81AF8002012F0970F14BF15
:100EB0000A462E222146284609F1010901F0ACF824
:100EC000B9F1080F0AD04E45E5D85946284609F130
:100ED000010901F0A1F8B9F1080FF4D198F8083030
:100EE000052B02D098F809305BB90B49284601F070
:100EF00093F8284601F084F8019B2B7303B0BDE8FA
:100F0000F08F064A0649284601F086F8EDE700BF53
:100F10005C5C0200605C02004C5C0200345C02001D
:100F20003C5C0200585C0200505C0200485C02001D
:100F3000485E020070B54468064620680D4618B940
:100F400008E02468206828B1B3682946984700283B
:100F5000F7D120682860256070BD00BF436818681D
:100F600008B102681A60704743681868704700BF8C
:100F70004368186818B908E00346006828B1814240
:100F8000FAD10A681A6001207047704730B5274CC3
:100F900094F8643083B0002B45D15A09012A38D126
:100FA00003F01F0140F2FF32CA4012F0010F204A45
:100FB0001CBFFF21D15401332A2BEED14FF0FF3358
:100FC000062200211B48C4F85A30C4E90033C4E9A2
:100FD0000233C4E90433C4E90633C4E90833C4E97D
:100FE0000A3303F01DFD144BC02283F80623402270
:100FF0001A60124B0020C3F87C01D3F87C210192C7
:1010000001214FF00042019D84F86410C3F80423CD
:101010000AE04FF0FF3222FA03F10548C90748BF42
:10102000C2540133B9E7082003B030BDF8310020C5
:10103000283200205632002000E100E0006000402D
:10104000034B93F86400003818BF0120704700BFBD
:10105000F831002070B57C4B03EB000E9EF930C0D8
:10106000BCF1000F56DA91F802C01CF0020FCCF36D
:10107000400541D11C6A013400F0B8805C6A01343B
:1010800000F0CF804FF0080E0C244FF00A0C53F8FC
:101090002C60013642D00EF1030CA4452AD253F83D
:1010A0002C6001363AD00EF1040EA64522D21E69FC
:1010B000013631D05E69013600F0A5809E690136A7
:1010C00000F0A480DE69013600F0A380082C11D066
:1010D0001C6A013400F0B1805C6A013400F0908039
:1010E0009C6A013400F0AC80DC6A013408BF4FF028
:1010F0000B0C13D0042070BD1C68013400F08C80F0
:101100005C68013400F094804FF0000E08244FF02A
:10111000020CBCE7082070BD4FF0040C1C1843F80B
:101120002C204FFA8CF284F83020002D64D091F8F6
:1011300002C01CF0040F1ED11CF0010F45D11F2866
:101140004D7887BF414E00F01F0404464FF0A04683
:1011500004F5E074AD0046F824503D4EC50800F09B
:10116000070E16F805C0012404FA0EF444EA0C0434
:10117000745591F802C01CF0020F1BD0930003F1CC
:10118000804303F5C0430978D3F8104524F44F3465
:1011900024F440740202C3F810450904D3F8100582
:1011A00002F47C5201F440310A430243C3F8102593
:1011B000002070BD083A43FA82F2097892F85A305A
:1011C00043EA811382F85A30F2E71F2887BF1F4C89
:1011D00000F01F0505464FF0A04404EB8504D4F849
:1011E000005725F00205C4F80057B6E74FF0080C89
:1011F0001A628EF830C062469C448CF8520096E722
:101200004FF0090C8AE74FF0050C87E74FF0060C0A
:1012100084E74FF0070C81E71A6000228EF8302037
:1012200085E74FF0090C5A628EF830C06246E3E75A
:101230005A6001228EF8302079E74FF0080C6DE7F4
:101240004FF00A0C6AE700BFF8310020000300509D
:101250005632002030B4384C04EB000C82B09CF9BC
:101260003030072B12DD083B44FA83F393F85A30F1
:101270009B09032B35D0012B0CBF4FF400324FF4E8
:1012800040321F2849D84FF0A04336E0DAB2072A8F
:1012900024D8980000F1804003F1400200F5C040DE
:1012A00052B29200D0F8105592B202F1804202F58B
:1012B000C04245F00105C0F81055002010601268CA
:1012C0000192019A51B19CF9302054F822202AB1A0
:1012D0001A49012202FA03F3C1F8043302B030BC08
:1012E00070471F281DD84FF0A0421346D2F8102592
:1012F000C24002F001020232120403EB8003D3F871
:10130000001721F44031C3F80017D3F800170A433F
:10131000C3F8002702B030BC704700F01F00084B34
:10132000EBE7074BD3F8102500F01F00C24002F096
:10133000010202321204F2E7F8310020006000409E
:10134000000300501F288ABF054B4FF0A04300F058
:101350001F00D3F8103523FA00F000F001007047A9
:10136000000300502DE9F047002384B0CDE902339B
:101370001C4AD2F80011012900F03B821E46194B8D
:10138000D3F80421012A00F02582164BD3F8082156
:10139000012A00F01082134BD3F80C21012A00F02F
:1013A000FB81104BD3F81021012A00F0E6810D4B90
:1013B000D3F81421012A00F0D1810A4BD3F8182167
:1013C000012A00F0B881074BD3F81C21012A0BD069
:1013D000044BD3F87C21012A00F02C8256BB04B0C8
:1013E000BDE8F08700600040D3F804231106EFD574
:1013F0000022C3F81C21D3F81C110091D3F87C11F2
:101400000098012946F0800614D1C3F87C21D3F856
:101410007C3101934FF0A042019BD2F82015CD4BB7
:101420000291C2F82015D3F820250392C3F8202595
:1014300046F00046C84F00240125A30003F1804375
:101440002E4203F5C0434FEA45050BD0D3F81005F3
:1014500057F82420D3F81015C0F30520C1F301413B
:1014600002B190470134082CE7D1002EB7DABA4C0C
:10147000B84E01254FF0A04794F95A305A1C4BD072
:10148000C3F3C20101F110020DEB020103F00702E8
:1014900011F808CC05FA02F21CEA020FD9B203F0E7
:1014A0003F0039D01F2800F2368103464FF0A04993
:1014B00009EB830205FA03F3D2F800C7D2F800E77C
:1014C0002EF4403EC2F800E704EB000ECCF3014CD2
:1014D0009EF930E0D2F800A754F82E80BCF1020F3C
:1014E0000CBF4FF4403E4FF4003E4EEA0A0EC2F8E5
:1014F00000E7C9F82035B8F1000F0DD0890903299C
:1015000000F08C81BCF1020F00F08581BCF1030F6B
:1015100002D1022900F0828194F95B30581C4BD033
:10152000C3F3C20101F110020DEB020103F0070247
:1015300011F808CC05FA02F21CEA020FD9B203F046
:101540003F0039D01F2800F2EA8003464FF0A0493F
:1015500009EB830205FA03F3D2F800C7D2F800E7DB
:101560002EF4403EC2F800E704EB000ECCF3014C31
:101570009EF930E0D2F800A754F82E80BCF1020F9B
:101580000CBF4FF4403E4FF4003E4EEA0A0EC2F844
:1015900000E7C9F82035B8F1000F0DD089090329FB
:1015A00000F04181BCF1020F00F03A81BCF1030F61
:1015B00002D1022900F0378194F95C30591C4BD0DC
:1015C000C3F3C20101F110020DEB020103F00702A7
:1015D00011F808CC05FA02F21CEA020FD9B203F0A6
:1015E0003F0039D01F2800F29E8003464FF0A049EB
:1015F00009EB830205FA03F3D2F800C7D2F800E73B
:101600002EF4403EC2F800E704EB000ECCF3014C90
:101610009EF930E0D2F800A754F82E80BCF1020FFA
:101620000CBF4FF4403E4FF4003E4EEA0A0EC2F8A3
:1016300000E7C9F82035B8F1000F0DD0890903295A
:1016400000F0F680BCF1020F00F0EF80BCF1030F58
:1016500002D1022900F0EC8094F95D305A1C4AD086
:10166000C3F3C20101F110020DEB020103F0070206
:1016700011F808CC05FA02F21CEA020FD9B203F005
:101680003F0038D01F2852D803464FF0A04909EB3D
:10169000830205FA03F3D2F800C7D2F800E72EF46C
:1016A000403EC2F800E704EB000ECCF3014C9EF97B
:1016B00030E0BCF1020F54F82E80D2F800E70CBFE6
:1016C0004FF4403A4FF4003A4EEA0A0EC2F800E7EF
:1016D000C9F82035B8F1000F0DD08909032900F0B1
:1016E0009880BCF1020F00F09180BCF1030F02D191
:1016F000022900F08E80D7F820350293C7F82035F4
:10170000D6F8202503921343C6F820257FF4B4AE03
:1017100004B0BDE8F08703F01F03B146C8E603F04C
:101720001F03B14614E703F01F03B14660E703F05F
:101730001F03B146ABE7D3F8042350067FF543AE51
:101740000022C3F81821D3F818310093009B46F00B
:10175000400638E600030050F8310020D3F8042397
:1017600094067FF52AAE0022C3F81421D3F8143171
:101770000093009B46F020061FE6D3F80423D5060D
:101780007FF515AE0022C3F81021D3F81031009375
:10179000009B46F010060AE6D3F8042317077FF5EE
:1017A00000AE0022C3F80C21D3F80C310093009B4B
:1017B00046F00806F5E5D3F8042352077FF5EBADB4
:1017C0000022C3F80821D3F808310093009B46F0AB
:1017D0000406E0E5D3F8042391077FF5D6AD002297
:1017E000C3F80421D3F804310093009B46F00206AD
:1017F000CBE5D2F8046316F001063FF4C0ADC2F8A1
:101800000031D2F800310093009BB8E501297FF444
:1018100072AFC0476FE701297FF47EAEC0477BE619
:1018200001297FF4C9AEC047C6E601297FF414AF91
:10183000C04711E70022C3F87C21D3F87C31019323
:101840004FF0A042019BD2F82015064B0291C2F83E
:101850002015D3F820250392C3F82025002E3FF44D
:1018600006AEE5E5000300502DE9F04FDFF89C914E
:1018700000EB400609EBC60683B0F76A012F8046ED
:101880008B4692464FEA400507D0022F54D04FB303
:101890000027384603B0BDE8F08FB76A746AA742E4
:1018A00040F28580013F3F1B366A574528BF5746A7
:1018B000321B974280F0868008F1010303EB43035B
:1018C00009EBC303594658683A4620443C4403F0A8
:1018D00057F9454409EBC5093846C9F8244003B017
:1018E000BDE8F08FB36A746AA3429CBF326A9B184A
:1018F000013B1B1B9A45CCD82B1809EBC3031F6A6D
:101900003A1B924576D3461C06EB460609EBC60603
:1019100001927068204403F033F95444019A7068CE
:10192000E41B0BEB0201224603F02AF9454409EBC4
:10193000C50557466C62ACE700F1010808EB4808A2
:10194000756A4FEAC8080027B36AAB4203F1FF3259
:1019500022D9346A531B534509EB0802A4EB050452
:1019600028BF53469C42506828BF1C46284459460D
:10197000224603F005F9336A25449D42AAEB040A86
:101980002744A3440DD07562BAF1000F81D0B36A29
:10199000AB4203F1FF32DCD8346A2344013B5B1BCA
:1019A000D9E700257562BAF1000FCDD171E7366A2B
:1019B0003744013F3F1B574528BF5746321B9742CC
:1019C000FFF47AAF08F1010A0AEB4A0A09EBCA0AE6
:1019D0005946DAF804000192204403F0D1F8BE1B06
:1019E000019ADAF8040034440BEB0201224603F0BA
:1019F000C7F86EE7431C03EB430309EBC3035246EE
:101A000058682044544403F0BBF88FE7703400203A
:101A100010B5134A134C14481449C4E906204FF476
:101A200000709FED0D7B206211480023C4E9122055
:101A30001022E01DA3626362E362A3656365E36550
:101A400084ED047B226503F03DF80A49204603F04B
:101A500039F82023A37110BD02000000020000002D
:101A6000085D02007034002070320020145D020016
:101A700060320020185D02006DDF704779DF70472B
:101A80007DDF704764DF70472DE9F04F85B09846E1
:101A90000E9D0388BDF83C9016462A880192002BC3
:101AA00038D0002704468A46BB4602E022885A45C1
:101AB00026DD616851F82B00039000220DF10B0127
:101AC00003A80BF1010BFFF7DDFF20BB9DF80B20F6
