:020000021000EC
:10C000000CDB0020DDC90100D1C90100C5C9010058
:10C01000D1C90100B9C90100ADC90100000000008B
:10C02000000000000000000000000000C54F0200FA
:10C03000D1C90100000000005F5002006F500200F3
:10C04000D1C90100D1C90100D1C90100D1C9010084
:10C05000D1C90100D1C9010089CF0100E1D301009C
:10C06000D1C90100D1C90100D1C90100D1C9010064
:10C07000D1C90100D1C90100D1C90100D1C9010054
:10C08000D1C9010021140200D1C90100D1C90100A8
:10C09000D1C90100D1C90100DDF70100D1C90100FA
:10C0A000D1C90100D1C90100D1C90100D1C9010024
:10C0B000D1C90100D1C9010000000000000000004A
:10C0C000D1C90100D1C90100D1C90100D1C9010004
:10C0D000D1C90100D1C90100D1C90100D1C90100F4
:10C0E000D1C90100000000000000000000000000B5
:10C0F00000000000D1C9010000000000D1C901000A
:10C10000000000000000000000000000000000002F
:10C11000000000000000000000000000000000001F
:10C12000000000000000000000000000000000000F
:10C1300000000000000000000000000000000000FF
:10C1400000000000000000000000000000000000EF
:10C1500000000000000000000000000000000000DF
:10C1600000000000000000000000000000000000CF
:10C1700000000000000000000000000000000000BF
:10C1800000000000000000000000000000000000AF
:10C19000000000000000000000000000000000009F
:10C1A000000000000000000000000000000000008F
:10C1B000000000000000000000000000000000007F
:10C1C000000000000000000000000000000000006F
:10C1D000000000000000000000000000000000005F
:10C1E000000000000000000000000000000000004F
:10C1F000000000000000000000000000000000003F
:10C20000002208B51146304808F0D4FC2F4B182105
:10C21000186008F0EFFC002211462D4808F0CAFC17
:10C220002C4B1821186008F0E5FC002211462A4822
:10C2300008F0C0FC294B1821186008F0DBFC002234
:10C240001146274808F0B6FC264B1821186008F064
:10C25000D1FC00221146244808F0ACFC234B1821E5
:10C26000186008F0C7FC002007F06EF8204B02466B
:10C2700000201A6007F068F81E4B024600201A6082
:10C2800007F062F81C4B024600201A6007F05CF8C9
:10C290001A4B024600201A6007F056F8184B024667
:10C2A00000201A6007F050F8164B024600201A6072
:10C2B00007F04AF8144B024600201A6007F044F8D1
:10C2C000124B186008BD00BF79C70100B8280020D4
:10C2D000C1C30100D828002069C50100B42800208E
:10C2E00061C30100B02800201DC80100AC28002057
:10C2F000D4280020D0280020CC280020C8280020E6
:10C30000C4280020F8280020EC280020C0280020A5
:10C3100038B505460A460C460E48294609F076FB14
:10C32000621E2A4413780A2B144602F1FF32F9D018
:10C330000D2BF7D0C5F101052544064A064B0748E9
:10C340001D60002151550068BDE83840012108F00A
:10C35000B7BC00BFAC270020A8270020D8280020A9
:10C3600010B51248124C00F075FE1248082100F07A
:10C370005FFE2368012B07D00F4A1368632B03F17C
:10C3800001010CD0116010BD0C4800F063FE0A4A98
:10C39000002323601368632B03F10101F2D1002312
:10C3A0001360BDE8104008F043BC00BF8462020087
:10C3B000F4280020902700208C270020986202009B
:10C3C0002DE98848DFF890A1DFF89091DFF890819F
:10C3D000524F534EDFF88CB1524DDFED538A9FED33
:10C3E000538A534C4FF0FF320021012008F0B0FC7B
:10C3F0000121DAF8000006F0FFFF0121D9F8000062
:10C4000006F0FAFF0121D8F8000006F0F5FF01213F
:10C41000386806F0F1FF0121306806F0EDFF0221D7
:10C42000DBF8000006F0E8FF0421286806F0E4FFCE
:10C430004049414800F00EFE204600F00BFE3F4808
:10C4400000F008FE204609F07BFB81B2204601F097
:10C4500075FB204609F074FB0128C3D1042128682C
:10C4600006F08EFF324B33491B783348643B112B67
:10C470000AD8DFE803F0450909090909090934095F
:10C48000090909092409091600F0E4FD2C4800F007
:10C49000E1FD2A4800F0DEFD3068012106F070FF62
:10C4A0009FE700F0D7FD274800F0D4FD234800F0B7
:10C4B000D1FDDAF80000012106F062FF91E700F0FB
:10C4C000C9FD214800F0C6FD1C4800F0C3FD1F4B0C
:10C4D0003868C3ED008A012106F052FF81E700F0C1
:10C4E000B9FD1B4800F0B6FD144800F0B3FD174B32
:10C4F000D8F8000083ED008A012106F041FF70E7C3
:10C5000000F0A8FD134800F0A5FD0C4800F0A2FDC6
:10C51000D9F80000012106F033FF62E7C8280020A7
:10C52000C4280020C0280020000087430000B44237
:10C53000AC270020AC620200B8620200C8640200AE
:10C54000F8620200C0620200EC620200A027002034
:10C55000E0620200D0620200D4280020D02800202F
:10C56000CC280020F82800202DE98848624963483B
:10C57000634EDFF8CC91DFF8CCA1DFF8CCB1614C91
:10C580005D4F5E4DDFF8C48100F064FD5E4800F051
:10C5900061FD5E4800F05EFD306806F067FF18B38D
:10C5A0005B49284600F056FD404600F053FD5748D1
:10C5B00000F050FD00F022FC5549284600F04AFDED
:10C5C000544800F047FD514800F044FD2368013312
:10C5D000642B2360E0D10023236008F029FB30683E
:10C5E00006F044FF0028DBD1D9F8000006F03EFF3A
:10C5F00068B13946284600F02DFD404600F02AFD7E
:10C60000424800F027FD00F0F9FB3946D5E7DAF89B
:10C61000000006F02BFFB8B13946284600F01AFD9D
:10C620003D4800F017FD394800F014FD012000F0EE
:10C63000B9FB3946284600F00DFD384800F00AFDE8
:10C64000324800F007FDC1E7DBF8000006F00EFFFE
:10C65000B8B13946284600F0FDFC314800F0FAFC3C
:10C660002A4800F0F7FC012000F0A8FB39462846D4
:10C6700000F0F0FC2B4800F0EDFC244800F0EAFC50
:10C68000A4E7294B186806F0F1FEB8B139462846F0
:10C6900000F0E0FC254800F0DDFC1C4800F0DAFC6E
:10C6A000012000F097FB3946284600F0D3FC2048D3
:10C6B00000F0D0FC154800F0CDFC87E71D4B186852
:10C6C00006F0D4FE002881D03946284600F0C2FC8E
:10C6D000194800F0BFFC0D4800F0BCFC012000F040
:10C6E00083FB3946284600F0B5FC144800F0B2FC44
:10C6F000064800F0AFFC69E700630200B862020080
:10C70000F82800208C2700200C630200C864020077
:10C7100018630200306302004063020048630200B5
:10C720005863020060630200CC280020706302009E
:10C7300078630200C8280020846302008C63020032
:10C74000C4280020D4280020D0280020286302001C
:10C7500010B503460C460648194600F07BFC2046FF
:10C7600000F078FCBDE81040024800F073BC00BF48
:10C77000B8620200C86402002DE9F84F1D491E4846
:10C78000DFF888B0DFF888A0DFF88890DFF88880CD
:10C790001A4F1B4E1B4DFFF7DBFF4FF0FF330022FC
:10C7A0000321DBF8000006F083FEDAF8000009F050
:10C7B00099FB02460B46144800F04CFC002421462D
:10C7C0002046013400F024FA052CF8D100F016FBC5
:10C7D000D9F8000008F094FBD8F8000008F042FAFD
:10C7E000386808F03FFA306808F03CFA286808F02A
:10C7F00039FAD2E79C630200B8630200D82800200F
:10C80000B0280020AC280020C4630200EC280020DF
:10C81000A4270020BC280020B42800202DE980484F
:10C8200039493A48DFF81C91DFF81C81384F394EFE
:10C83000394D9FED3AAADFED3A9A9FED3A9ADFED36
:10C840003A8A9FED3A8ADFF804B1394CDFF800A14B
:10C8500085B0FFF77DFF5146364800F0FBFB3648B8
:10C8600000F0F8FB354800F0F5FB01A800F0FAFEF7
:10C870009DED027ADDED016AD9ED007AD8ED005A1E
:10C8800097ED006A96ED005A76EE876A9DED037A81
:10C8900067EE8A7A76EE876AB6EE0E7AE6EEA97AC7
:10C8A000C9ED006AE5EE877A95ED007AC8ED007A69
:10C8B00067EEA75A27EE097A75EE866AF0EE477A98
:10C8C00076EE856AC7ED005AE6EEA87AC6ED005A04
:10C8D000F4EEC87AF1EE10FAC5ED007A0BDC2368AD
:10C8E000632B03F1010201D02260B4E7002323602F
:10C8F00008F09EF9AFE7124800F0ACFBDBF800004F
:10C90000032106F03DFDEAE7E0630200F063020068
:10C91000802700207C270020782700204703F8BECE
:10C920004703F83EB9FC473F1B0D603E0000C8427C
:10C930008C270020B862020008640200C86402006C
:10C94000186402008827002084270020EC2800209B
:10C95000FC63020008B500F0EDF800F0A9F91048FA
:10C9600001F04EF90F4800F075FB64224FF4FA61B4
:10C970004FF4FA7000F018FD06F020FF0022114677
:10C98000094808F017F9182108F034F906F032FFC9
:10C99000022108464FF0FF3200F04AF9002008BD9E
:10C9A00011C301003864020001C201004FF0FF32E0
:10C9B0000221042000F03CB94FF0FF320121042095
:10C9C00000F036B94FF0FF320021042000F030B9FA
:10C9D00004214FF0FF32084600F02AB92449254CC3
:10C9E000A14280B521D2631E5B1A9E08032B0A4622
:10C9F00006F101063AD9204F750807EBC5053B46FD
:10CA0000D3F800C05868C2F800C008339D42506097
:10CA100002F10802F4D1F20707D526F0010607EB70
:10CA2000860301EB86021B681360144B9C4218D2EC
:10CA3000013B1A1B9008032A0E4B00F101000ED98E
:10CA4000410804EBC10100221A605A6008338B428E
:10CA5000FAD1C30705D520F0010004EB80030022C2
:10CA60001A6000F00DF8FFF775FFFEE7024BDAE7FA
:10CA70000826002078270020707302000CBB0020DD
:10CA800010B44FF0E0220849D2F8883D4FF08040C2
:10CA900043F47003C2F8883D0124044B04600B602A
:10CAA0005DF8044B704700BFDC2800200090D003E5
:10CAB0004FF47A7300BF00BF00BF00BF00BF00BFCC
:10CAC00000BF00BF00BF00BF00BF00BF00BF00BF6E
:10CAD00000BF00BF00BF00BF00BF00BF00BF00BF5E
:10CAE00000BF00BF00BF00BF00BF00BF00BF00BF4E
:10CAF00000BF00BF00BF00BF00BF00BF00BF00BF3E
:10CB000000BF00BF00BF00BF00BF00BF00BF00BF2D
:10CB100000BF00BF00BF00BF00BF00BF00BF00BF1D
:10CB200000BF00BF00BF00BF00BF00BF013BC1D1BD
:10CB3000704700BF70B52E4C82B0661D14F8015BC3
:10CB4000284600F0DDF90021284600F0AFF9B44294
:10CB5000F4D1284C661D14F8015B284600F0C2F998
:10CB60000021284600F0A2F9A642F4D10C210E20A3
:10CB700000F090F90C21172000F08CF9FFF798FFD6
:10CB80000222FFF795FF0021FFF792FF0E20FFF72B
:10CB90008FFFFFF78DFF184B00F0D0F9174B0222E3
:10CBA0000121172000F0CAF90621282000F030F9F1
:10CBB00014220321002000F0DBFB00F025FC0A22F8
:10CBC000FFF776FF013AFBD10A21FFF771FF013928
:10CBD000FBD10323CDE9001305220123084600F011
:10CBE000C3FC5A22FFF764FF013AFBD102B070BDCB
:10CBF00050640200486402001DCF01002DCF0100E7
:10CC000028B108B5FFF754FF0138FBD108BD7047C4
:10CC100010B5054B0446585C00F072F9034B185DE3
:10CC2000BDE8104000F05EB94864020050640200A4
:10CC30002DE9F04106461C208846144600F052F9C2
:10CC40000B2000F04FF91F2000F04CF9252000F0D8
:10CC500049F91E2000F046F9134B144F13F8080051
:10CC600000F04EF9621C01D0002C17DDBD5D284696
:10CC700000F038F94FF4FA72FFF71AFF013AFBD1CE
:10CC8000284600F03DF94FF4FA72FFF711FF013A20
:10CC9000FBD1631CEBD0013C002CE7DC17F808004B
:10CCA000BDE8F04100F01EB9486402005064020083
:10CCB00030B40C4A0C4B0524012000210425C2F895
:10CCC0000C45C2F86055C2F80005C2F804150322ED
:10CCD000C3F80C45C3F86025C3F80005C3F8041574
:10CCE00030BC70470010024000200240F0B500FB4D
:10CCF00001F16FF0180505FB01F102FB03F3234E70
:10CD0000234C05FB03F332314FF4FA6505FB01F1C7
:10CD1000323305FB03F34FEAE17C86FB0171CCEB78
:10CD2000611186FB0376DB1789B2C3EB661300261D
:10CD300061F30F069BB261F31F46002163F30F01FD
:10CD400063F31F41134BC4F80855134FC3F808553C
:10CD5000124DC4F820754FF0020E4FF49C6CC4F8CD
:10CD600024E5C4F828C5C3F82055C3F824E5C3F862
:10CD700028C53E60296000B112B9094B3B602B60A9
:10CD80000449034A01238B609360F0BD1F85EB517A
:10CD90000010024000200240E4280020E02800208B
:10CDA000E803E8030349044A034612680868194681
:10CDB000FFF79CBF0C260020082600200349044AE8
:10CDC0000346126808681946FFF790BF082600203E
:10CDD0000C260020034B1A68014603461046FFF755
:10CDE00085BF00BF0C260020034B1A68014603468E
:10CDF0001046FFF77BBF00BF08260020034A1268D9
:10CE0000012319461046FFF771BF00BFE828002034
:10CE1000F8B5124C00250E46074629463046C4F8A0
:10CE2000005500F043F82946384600F033F8304604
:10CE300000F058F801234FF0EB710422C4F80C65A0
:10CE4000C4F81475C4F82415C4F86C55C4F800254A
:10CE5000A3602360C4F80851F8BD00BF0020004063
:10CE60000B1E13DD411E0A4A10B4C818002411F825
:10CE7000013FC2F81C35D2F81C31002BFBD0814297
:10CE8000C2F81C41F3D15DF8044B7047704700BFF6
:10CE9000002000401F288ABF024B034B203843F874
:10CEA00020107047000A0050000700501F2830B4BF
:10CEB0000DD9084C084A20381568012383402B43BC
:10CEC00041F00101136044F8201030BC7047034C5E
:10CED000034AF1E7000A0050140800500007005010
:10CEE000140500501F288ABF034A044A2038012332
:10CEF00083401360704700BF0808005008050050C9
:10CF00001F288ABF034A044A203801238340136044
:10CF1000704700BF0C0800500C050050024B032165
:10CF2000186806F02DBA00BFEC280020024B032140
:10CF3000186806F025BA00BFEC280020104B120438
:10CF40000B449B0042EA002242F001020D481A60A5
:10CF5000D0F80423012303FA01F111434FF0E02339
:10CF6000C0F80413D3F8002142F04002C3F80021B6
:10CF7000D3F8042442F48002C3F80424704700BFAD
:10CF8000441900100060004038B5134CD4F800512B
:10CF9000C5B9D4F804316BB90F4BD3F8082342F06C
:10CFA0000102C3F80823D3F8082342F00202C3F8B1
:10CFB000082338BD094B0321186806F0E1F9C4F8CD
:10CFC0000451E9E7054B0321186806F0D9F900235D
:10CFD000C4F80031E0E700BF00600040EC2800200A
:10CFE00030B4104B104D114C0121C3F8001508440A
:10CFF00041F2D071C3F810054FF0E022C3F8185584
:10D000000320C3F8F8154021C3F8F005C3F81C4508
:10D01000C3F80013D2F8003143F08003C2F80031A6
:10D0200030BC704700700040000702007017983A4B
:10D03000074A0123C2F82C06C2F830161360536069
:10D04000D2F80431002BFBD00023C2F80431704722
:10D05000007000400FB42DE9F0438DB014AF0021F3
:10D0600057F8044B0B912578029755B307AE0BE0A8
:10D07000102920D00B46013130336B440B9103F85B
:10D08000145C65780134F5B1252DF1D16378002B5E
:10D09000EED0A3F163020134152A1CD8DFE802F0B8
:10D0A000D4981B1B1B1B1B1B1B1B1B1B1B1B1B1B9A
:10D0B000731B3B1B1B263046FFF7D2FE01210023CA
:10D0C000DAE7294607AE3046FFF7CAFE0DB0BDE8E5
:10D0D000F04304B07047102900F01D810A46013169
:10D0E00030326A440B9102F8143CCAE7B94659F849
:10D0F000045B002D40F0D480102900F025810D46FE
:10D10000013105F130030DEB030530230B914F4640
:10D1100005F8143CB5E7002357F804CB9248DFF834
:10D120004C928DF81B300DF11B08A9FB0C23DB087A
:10D1300003EB8302ACEB4202E646855C08F8015D36
:10D14000BEF1090F9C46F0D8002D9AD04FF001098E
:10D150000AE001F130036B44013103F8145C18F864
:10D16000015F0B91002D8CD01029F2D13046FFF7D2
:10D1700077FE8DF81C5018F8015FCDF82C90012136
:10D18000002DE6D17DE757F8048B98F80050002D6C
:10D190003FF477AF4FF001090BE001F130036B442E
:10D1A00001310B9103F8145C18F8015F002D3FF476
:10D1B00068AF1029F1D13046FFF752FECDF82C9020
:10D1C0008DF81C5018F8015F0121002DE5D158E7BA
:10D1D00057F8043B002B44DB00226348DFF88CE166
:10D1E0008DF81B200DF11B08AEFB0352D20802EB99
:10D1F0008205A3EB45059C46455D08F8015DBCF141
:10D20000090F1346F0D8002D3FF43BAF4FF0010952
:10D210000BE001F130036B44013103F8145C18F8A2
:10D22000015F0B91002D3FF42CAF1029F1D1304656
:10D23000FFF716FE8DF81C5018F8015FCDF82C9002
:10D240000121002DE5D11CE757F8045B1029EDB250
:10D2500069D00B46013130336B440B9103F8145CF9
:10D260000FE700224048DFF804918DF81B205B4255
:10D270000DF11B0CA9FB0352D20802EB8205A3EBB4
:10D2800045059E46455DBEF1090FE04613460CF884
:10D29000015DEFD82D25A8F102080CF8015CB5E777
:10D2A000102946D030200A184B1C6A44102B0B93CF
:10D2B00002F8140C4DD0023130336B44782203F85D
:10D2C000142C29480B9100238DF81B300DF11B08FD
:10D2D00005F00F030F2DC75C08F8017D4FEA151507
:10D2E000F6D87FB3012509E00B46591C30336B4457
:10D2F0000B9103F8147C18F8017F1FB31029F3D1A8
:10D300003046FFF7ADFD8DF81C7018F8017F0B95C6
:10D3100037B30123E9E730460193FFF7A1FD019BF5
:10D3200001210022DCE63046FFF79AFD01210023AF
:10D3300091E73046FFF794FD30238DF81C30022131
:10D340000123B9E74F469CE63046FFF789FD0121EE
:10D35000D7E619463046FFF783FD01210023ABE7EE
:10D360004F4601218DE600BF58640200CDCCCCCCE5
:10D3700038B514460D4600F0F3F91CB9094B3222BA
:10D380001A6038BD4FF440712046FFF78FFD2046EC
:10D39000FFF7A8FD2846FFF723FE024B32221A6052
:10D3A00038BD00BFF0280020F8B50B4B0546D41758
:10D3B00083FB0203132AC4EBE304A1EB050696FBEF
:10D3C000F4F608DD054F39682846142200F0D4F938
:10D3D000013C3544F7D1F8BD67666666F028002049
:10D3E00008B5064A064B0021C2F818111868022138
:10D3F00005F0C6FF034B01221A6008BD0070004013
:10D40000F8280020F4280020044B00220121196094
:10D41000C3F80022C3F80425704700BF00D00040C5
:10D420002DE9F8432B4B9046587000228146CEB22E
:10D4300032200D465FFA88F721211E709F7000F0A0
:10D4400027FA0120FFF7DCFB32200022222100F026
:10D450001FFA0120FFF7D4FBB9F1020F36D81E4B9B
:10D4600013F809401D4B13F80930E400DB0064B2E7
:10D47000DBB2013D022D9DBF06F10802120102F050
:10D48000F00280221A4323213220B8F1090F88BF0D
:10D49000174600F0FDF90120FFF7B2FB44EA07123E
:10D4A00042F007023220D2B2202100F0F1F901202F
:10D4B000FFF7A6FB2721322000F0B8F904460A2026
:10D4C000FFF79EFB2307F5D5BDE8F88300231C4634
:10D4D000CFE700BF00290020706402006C640200E6
:10D4E00010B5204C0128D3B260700CBF9020802072
:10D4F000032A23709ABF9B00DAB204220229A1708A
:10D5000026D003292AD0012925D0024360213C20BE
:10D5100000F0BEF90A20FFF773FB022261213C20D4
:10D5200000F0B6F90A20FFF76BFB3C2010226221C5
:10D5300000F0AEF90A20FFF763FB67213C2000F002
:10D5400075F904460A20FFF75BFB2307F5D510BDEC
:10D5500042F00202D9E742F00102D6E742F00302AC
:10D56000D3E700BFFC2800202DE9F843DDF8208038
:10D57000DDF8249005460E461746102108201C466B
:10D5800000F042F93A4631462846FFF749FF4A463D
:10D5900041462046BDE8F843FFF7A2BF254A53782D
:10D5A00033B91378032B07D8DFE803F00C0F091207
:10D5B000022B10D0012B1DD09FED1F0A70479FED4D
:10D5C0001F0A70479FED1E0A70479FED1E0A7047A5
:10D5D0009FED1D0A70471378032BEDD801A252F876
:10D5E00023F000BFBFD501001DD6010017D60100F2
:10D5F00011D601001378032BDED801A252F823F0D4
:10D600002FD6010029D60100C5D5010023D601007F
:10D610009FED0E0A70479FED0E0A70479FED0D0AB1
:10D6200070479FED0D0A70479FED0C0A70479FED04
:10D630000C0A704700290020000000007C0A803C92
:10D6400024977F3B751F003C371A403DF914403E3C
:10D650007C0A803D7C0A003D3E05403C2497FF3A11
:10D660005873803A2DE9F04723210746322000F015
:10D67000DDF824218246322000F0D8F8282132201B
:10D6800000F0D4F829210646322000F0CFF82A21F4
:10D690008146322000F0CAF82B210546322000F0E6
:10D6A000C5F82C218046322000F0C0F82D21044618
:10D6B000322000F0BBF8FFF771FF264B5B78022B9E
:10D6C00096BF254A0023D35C1AF0400F33D076B2C0
:10D6D0006DB264B249EA062648EA052540EA042408
:10D6E00036B22DB224B246FA03F206EE902A45FA7B
:10D6F00003F244FA03F307EE102A07EE903AF8EE2D
:10D70000E66AB8EEC77AF8EEE77A9FED146A66EE3D
:10D71000806A27EE007A67EE807A66EE866A27EEE8
:10D72000067A67EE867AC7ED006A87ED017AC7ED63
:10D73000027ABDE8F0874FFA89F94FFA88F841B2CA
:10D7400046EA092645EA082544EA012436B22DB204
:10D7500024B2C8E700290020746402000AE81C41D2
:10D76000044B05210122C3F80C15C3F86005C3F86A
:10D770000025704700C0014030B41E4B1E4C93FB87
:10D78000F0F39BB203FB01F102FB00F01B4A84FBA8
:10D790000154C9174FEAE07CC1EB641182FB002001
:10D7A000174A89B20024C2F8083561F30F04154BFB
:10D7B000C2F82035CCEBA01061F31F4402380121E0
:10D7C0000225C2F82455C2F828051C609160D2F8E1
:10D7D0001031002BFBD0002001230949C2F81001B1
:10D7E0005360D1F80431002BFBD00023C1F8043181
:10D7F00030BC704720A107001F85EB51D34D62104C
:10D8000000C0014004290020074B10B405224FF04E
:10D81000CC74C3F80805C3F80C15C3F82445C3F845
:10D8200000255DF8044B704700300040174A401057
:10D83000012310B4C2F888059360C2F81C15D2F811
:10D840001C31002BFBD00024022001230F49C2F819
:10D850001C41C2F800021360D1F80831002BFBD044
:10D860000023C1F80831D1F81805084A0123C0B2D5
:10D870004B61D2F80431002BFBD00023C2F80431F5
:10D88000C2F800325DF8044B704700BF0030004022
:10D8900010B4134C40100123C4F88805A360C4F8E9
:10D8A0001C15D4F81C31002BFBD000230C49C4F804
:10D8B0001C31C4F81C25D1F81C31002BFBD00020F2
:10D8C0000123074AC1F81C014B61D2F80431002B37
:10D8D000FBD00023C2F804315DF8044B704700BF51
:10D8E0000030004076DF70477ADF70477CDF70479A
:10D8F0007FDF70478FDF7047B1DF704733DF7047DE
:10D9000002F0A0B910B50388212B82B0044613D8C9
:10D910000F2B0FD9103B112B0CD8DFE803F0284058
:10D920000B500B0B0B0B0B0B0B0B0B0B0B0B0B1CF1
:10D930003B2B05D002B010BD522B4AD0562BF7D14D
:10D94000A0881321FFF7CEFF0028F3D002B0BDE876
:10D95000104002F077B900238088ADF8043001A9A7
:10D96000FFF7C8FF0028E5D002F06CF9E2E71F4B93
:10D970001F482049C01AC008000440F0030001F00D
:10D9800017FB072000F02EFD00282CD11A4BA18890
:10D990001A48198000F042FF0028CBD0D6E7134B7D
:10D9A00013481749C01AC008000440F0030001F0F2
:10D9B000FFFA114B4FF6FF721A8002B010BD0E4AEB
:10D9C0000023108885211A46FFF792FF0028B1D066
:10D9D000BCE7094A0023108819461A46FFF78CFF56
:10D9E0000028A7D0B2E702F02DF9CFE708730200B4
:10D9F000107302007864020016260020F82A002026
:10DA00008464020008B5037803B108BD054B3B21CF
:10DA10001888FFF767FF0028F7D0BDE8084002F03C
:10DA200011B900BF16260020072808B51CD00A2807
:10DA30000ED0042800D008BD154B13211888FFF71D
:10DA400051FF30F00803F6D0BDE8084002F0FAB804
:10DA5000002000F0C7FCB8B900F072FA88B9FFF7EF
:10DA60004DFF0028F0D108BD094A12884FF6FF7318
:10DA70009A42E0D1074802F01DFE30F00803E3D1DE
:10DA8000D9E702F0DFF8EAE702F0DCF8E4E700BFEC
:10DA900016260020002A00200D4B4A881B889A4237
:10DAA00000D070470A8840F677239A42F9D1094A94
:10DAB00009488B880949801A033B094AC0089BB270
:10DAC0000004138040F003001A4601F0AFB800BF15
:10DAD00016260020087302001073020094640200EE
:10DAE00014260020037823B9024B818A1B68006941
:10DAF000184770471C2B002002F0A4B808B530B1BD
:10DB0000032803D1022000F06DFC50B908BD00F0DD
:10DB100069FC50B900F014FA68B9FFF7EFFE00286D
:10DB2000F4D0BDE8084002F08DB802F08BF800F0A8
:10DB300007FA0028F1D002F085F8EEE72DE9F04F62
:10DB400085B0019189B3284CDFF8A4A094F800C0F7
:10DB5000DFF8A490DFF8A480451E4FF0000B0CF115
:10DB6000010215F8011F0AF80C105FFA82FC0AEB9B
:10DB70000C0284F800C012F8012C0A2A09D00D2AE0
:10DB800007D0019B5A1E5A4503D0184A1288624595
:10DB900006D8BCF1000F0BD14FF0000C84F800C088
:10DBA000019B0BF1010B5B45D9D105B0BDE8F08FAE
:10DBB0000F4F104EB9F80030ADF80EC00DF10E0247
:10DBC0003946304603F026F8082828FA00F3E3D057
:10DBD000132801D8DB0702D402F034F8DCE713285D
:10DBE000DAD194F800C0E5E7FC29002014260020D3
:10DBF00008290020182600201626002021000800F1
:10DC000010B54FF48041ACB00446002000F098FEFF
:10DC1000002840F0C88000F083FE02F0E9F90028F7
:10DC200040F0CA808849032000F0E8FB002840F05B
:10DC3000CC8001A9002000F095F9002840F0CE80AA
:10DC400001F0B4FB002840F0D08001F0BDFD0028B9
:10DC500040F0D280002301A90120019301F006FCCD
:10DC6000002840F0ED8001A801F0D8FC002840F029
:10DC7000E480112375488DF8003007F061FF734987
:10DC800082B26846FFF732FE002840F0D3800822B7
:10DC9000002101A807F00AFE6D4A4FF0C87301A8E1
:10DCA000CDE90123FFF720FE002840F0C08069493C
:10DCB000694800F093FC002840F0B6806648F721E0
:10DCC00000F0A4FC002840F0AC80644B6448019351
:10DCD00001A900F091FD002840F0A080002104225D
:10DCE000684607F0E3FD5F4B5F480093694602F02A
:10DCF0001FFF002840F08F80AC22002101A807F010
:10DD0000D5FD01235949159102204021ADF850302D
:10DD10008DF8803044F25063554A8DF80400239109
:10DD2000249354482A924FF4A06301A9ADF8063019
:10DD300002F0FAFB00286BD14E48012102F0F0FB03
:10DD40001C22002101A807F0B1FD00234A4A4B49DB
:10DD500001934FF4A0300290ADF812308DF81430DA
:10DD6000079203234FF4F02201A8069103928DF845
:10DD7000103002F0FFFD002847D14148FFF76AF953
:10DD8000404A414B41499B1ADB081B0443F0030006
:10DD900001F00EF93748032102F040FC78BB3C4B00
:10DDA0001C602CB010BD01F04DFF00F0B9FD02F079
:10DDB0001FF900283FF436AF01F044FF2249032049
:10DDC00000F01CFB00283FF434AF01F03BFF01A939
:10DDD000002000F0C7F800283FF432AF01F032FF16
:10DDE00001F0E4FA00283FF430AF01F02BFF01F01E
:10DDF000EBFC00283FF42EAF01F024FF2AE701F0EE
:10DE000021FF234B1C602CB010BD01F01BFFB4E7B9
:10DE100001F018FF90E701F015FF6DE701F012FF28
:10DE20005CE701F00FFF50E701F00CFF46E701F05F
:10DE300009FF3CE701F006FF29E701F003FF18E7BF
:10DE400001F000FF0FE700BF29DA0100B064020013
:10DE500010003C0099DA0100042B002001D90100D8
:10DE6000F82A0020E5DA01001826002010260020FC
:10DE7000FDDA0100002A0020F9DA010005DA0100CC
:10DE8000B86402000873020010730200CC64020040
:10DE90001C2B002010B50388102B07D0112B04D1A8
:10DEA000254B18680138186030B110BD224C21682C
:10DEB00011B30131216010BD0122022100F0F8FAF6
:10DEC00040B1072806D01D4B1B68002BEDD0BDE8E4
:10DED0001040184707220221012000F0E9FA08B19A
:10DEE0000728F0D100210A22084600F0E1FA0028B4
:10DEF000DBD00728D9D0E6E70122084600F0D8FA9F
:10DF000038B1072805D00D4B1B6803B1984721682D
:10DF1000CFE707220221012000F0CAFA08B1072842
:10DF2000F1D104220221002000F0C2FA0028EED034
:10DF30000728ECD0E7E700BF202B0020242B00208F
:10DF400008B5002000F0DEFA10B1062800D008BDA8
:10DF5000012000F0D7FA0028F9D0062808BF0020D9
:10DF600008BD00BF184B10B5186031B101200C4638
:10DF700000F032FAF8B102232370144B186808B18C
:10DF8000002010BD0122022100F092FA08B10728FA
:10DF9000F7D107220221012000F08AFA08B10728F0
:10DFA000EFD100210A22084600F082FA0028E7D0CB
:10DFB0000728E5D010BD00F00FFA10B10B23237035
:10DFC000DBE72070D9E700BF242B0020202B0020A6
:10DFD000022003F02BB800BF2DE9F04706460D469E
:10DFE00003F052F8012801D9BDE8F087012D04465D
:10DFF0001FD0022D17D0002DF6D11C4802F0A4F836
:10E000001B4B1C4A04EB44010B44125D9D78AA4251
:10E01000EAD1002DE8D0184B1B68002BE4D028462D
:10E02000BDE8F0471847124B00EB400423445D78ED
:10E03000EFE70F4F00EB4003FA18FD5C53784FEA0F
:10E0400040082BB9A04447440A4BBA781A55E0E778
:10E05000DFF8289005484A464FF4804102F018F84E
:10E060000028EFD189F80060ECE700BF40260020CF
:10E070002C2B0020282B0020342B00202A2B0020C2
:10E0800010B5007803F000F8012800D910BD074B47
:10E0900000EB4000034458780028F7D0044B1B687D
:10E0A000002BF3D0BDE81040184700BF2C2B0020F8
:10E0B000342B002070B5BC4E3378054673B1BB4B92
:10E0C0001B7800243470002B4DD0022C08BF032491
:10E0D0002046013402F038FF0A2CF6D1172D61D802
:10E0E000DFE815F0E80063006300FE00290181000D
:10E0F00095007A005000440050004400E2001800EF
:10E100001800180018001800A300B600CC00110178
:10E110005C005C00A64802F017F8D5F11105044632
:10E1200000F02C81002840F02981012D14D0C82353
:10E1300003FB05F521464FF400434FF47A70C5FB0D
:10E1400003014FF4FA62002307F024FF2246014640
:10E15000974801F09DFF0446022002F0E3FE934B36
:10E1600001221A701FE002F001FFB7E701203070B2
:10E1700002F05CFFBDE870408E4800224FF4005171
:10E1800001F086BF0120307002F050FFBDE8704002
:10E190008848002240F2666101F07ABF02F016FF63
:10E1A000854B1D700024204670BD002002F0A6FEA5
:10E1B000002840F0CC8002F0B5FE40F6CD4141F69B
:10E1C0009A13022D18BF19467B4B7A481D70BDE883
:10E1D0007040002201F05CBF002002F0A3FE764BED
:10E1E00007221A70DEE7002002F088FE002800F007
:10E1F000C280002002F0A8FE6F4B6E4805241C7000
:10E20000BDE87040002240F6CD4101F041BF002042
:10E2100002F00CFF684B674806241C70BDE8704094
:10E22000002240F2666101F033BF604B1B78002B87
:10E2300000F0B4800024022C08BF032420460134DF
:10E2400002F082FE0A2CF6D15B4B12221A70A9E76B
:10E25000564B1B78002B00F09E800024022C08BF38
:10E2600003242046013402F06FFE0A2CF6D1002070
:10E2700002F058FE504B13221A7093E74B4B1B7859
:10E28000002B00F085800024022C08BF03242046C8
:10E29000013402F059FE0A2CF6D1012002F042FEB0
:10E2A000454B14221A707DE702F090FE424B0C227F
:10E2B0001A7077E73D4B1B78002B72D00024022C9C
:10E2C00008BF03242046013402F03EFE0A2CF6D19A
:10E2D000384801F039FF384B002204461A7062E7D3
:10E2E000002002F00BFE002840D0002002F02CFE9F
:10E2F00043F23331304B03241C70BDE870402D488D
:10E30000002201F0C5BE294B1B78002B3DD0002414
:10E31000022C08BF03242046013402F015FE0A2C0B
:10E32000F6D1002002F0FEFD012002F0FBFD224BA1
:10E3300015221A7036E7002002F0E0FD88B10020B7
:10E3400002F002FE4FF480311B4B0424D4E700207E
:10E3500002F0FAFD022D47F2333118BF4FF480313D
:10E3600032E702F0DFFD41F69A11EDE702F0DAFD47
:10E3700040F6CD41BEE702F0D5FD3DE7022002F0B8
:10E38000E3FD0A4B00221A700DE702F0EFFDC8E72B
:10E3900002F0ECFD81E702F0E9FD68E702F0E6FD3E
:10E3A00052E702F0E3FD93E7402B0020382B0020DA
:10E3B0006026002080260020412B0020044B1B6893
:10E3C000DB0700D47047034B1878FFF773BE00BF1C
:10E3D0003C2B0020412B0020012801D90020704750
:10E3E00002F03EBE044B1B6813F0010301D1184636
:10E3F0007047FFF75FBE00BF3C2B002038B5224BB3
:10E40000224A196081070446106004D410F0010507
:10E4100028D1284638BD1E4B1E480E210F221970E8
:10E42000DA70022140F2333201F09AFB054630B136
:10E43000E207EED5012002F037FE284638BD01F094
:10E44000EBFB05460028F3D10146134A134801F0BF
:10E4500007FEE3070546DCD5012002F025FE002D6E
:10E46000D7D102E0012002F01FFE0D4A0D48002125
:10E4700001F0F6FD05460028CBD1BDE838400A4A38
:10E480000A48012101F0ECBD342B00203C2B002078
:10E490002C2B0020F864020081E0010008650200D6
:10E4A000BDE3010010650200D1DF01000C65020030
:10E4B000012806D8012A06D001291BD0022908D03C
:10E4C00071B107207047012911D002294FF00002D5
:10E4D000F6D10B4B00EB4000034400205A7070470C
:10E4E000074B00EB400003449A700020704700F196
:10E4F0000E02D2B2024B00EB40001A54F5E700BF07
:10E500002C2B0020012801D90620704708B502F005
:10E51000C5FD1F2886BF0A4B00F01F004FF0A04327
:10E5200003EB80030020D3F8002722F44032C3F825
:10E530000027D3F8002742F44032C3F8002708BD73
:10E540000003005090DF7047A5DF7047B5DF7047CC
:10E5500070B5002484B061F30F04002361F31F44FD
:10E560006A4602A90294064603930093ADF804306C
:10E57000FFF7E8FF044610B9204604B070BD124B07
:10E58000124DED1AED0801F055F92D0445F0010585
:10E5900003460F493246284600F048FBBDF80020EC
:10E5A000BDF8023052EA030103D00A49284600F0C0
:10E5B0003DFBBDF80420002ADED02846064900F0C5
:10E5C00019FC204604B070BD0873020030730200CD
:10E5D0001465020060650200A065020088B130B4D5
:10E5E000FB220271084C016100234FF0F71541F640
:10E5F000FB320560C0F806404381828130BC18467A
:10E6000070470E20704700BFF700170040B1A1F11E
:10E610001703E02B02D801800020704707207047C5
:10E620000E2070478288002A3CD110B50388242B25
:10E6300082B00C4611D80F2B30D9103B142B2DD89B
:10E64000DFE803F06E932C2C2C2C2C2C2C2C2C2C57
:10E650002C2C2C2C2C2C2C9C82003A2B43D0552B70
:10E660001CD1C388C988A272172B38BF17238B42CD
:10E6700028BF0B4623811046FFF768FF002840F0B3
:10E680008680E37A53B9236943B140F67721228922
:10E690000091ADF80420694620469847A37A5BB9FB
:10E6A00002B010BD7047112840F08980237B627B47
:10E6B00001219A42A17242D3E1880020FFF744FF72
:10E6C00048B31128ECD001F0B5F8444B4449024658
:10E6D00044481B1ADB081B0443F0010002B0BDE8EC
:10E6E000104000F087BB4389C98822698B4228BF4C
:10E6F0000B46172B38BF172323814AB1E17A39B172
:10E7000040F677210091ADF80430694620469047E5
:10E7100000236381C4E74FF48073638102B010BDAE
:10E720000B790B73C27B012A0CBF2188C98822890F
:10E7300008BFE1808A4238D3627B9A42AED2194642
:10E740000020FFF705FFA9E70B69027A4A73002B47
:10E75000A4D000204DF67A218DF8050000918DF8A7
:10E76000042069462046984798E71F49C4F80610D8
:10E77000002241F6FB336281A38191E7017A237B7A
:10E78000994228BF19460020FFF7E2FE86E701F014
:10E7900051F8124B1549024612481B1ADB081B049C
:10E7A00043F0010000F026FB6BE70020FFF7CCFEF2
:10E7B00000287FF478AF0122237BE272BCE701F0EE
:10E7C00039F8064B0649024606481B1ADB081B04AB
:10E7D00043F0010000F00EFB237BADE73073020035
:10E7E000F865020008730200F70017002C660200AB
:10E7F000B0DF704766DF704760B159B10378DE2B38
:10E800000AD009684160DE224FF6FF730270438030
:10E81000002070470E2070470820704738B10378F9
:10E82000DE2B02D1418000207047082070470E2067
:10E83000704700BFF9B170B5054684B050B10B7890
:10E84000DE2B0C4606D180884B88984214D02B884A
:10E85000012B01D004B070BD2E7A012EFAD163884D
:10E86000A8889842F6D126720021FFF7C3FF00283E
:10E870004DD12072EEE770470B7AEBB92B88112B44
:10E8800034D0512BE4D1AB79022BE3D1AA7B02F037
:10E89000FD0104292ED0052ADCD100226946C1E9F8
:10E8A00001220092CA608DF80030FFF7A1FF002816
:10E8B000D0D063689847CDE70021FFF79BFF034660
:10E8C00070B111280BD0636898472B88112B09D0A1
:10E8D000512BBDD1A88863888342D4D0BAE70123E5
:10E8E0002372F2E7AA8863889A42B3D14FF6FF7386
:10E8F0006380AFE769460022C1E901220092CA6045
:10E900004FF4C0728DF80030ADF80420CDE7112827
:10E9100004D0636804B0BDE870401847267299E7D8
:10E9200008B502F019FF0448042100F017FC034B5E
:10E9300001225A7108BD00BF58730200A0260020B2
:10E94000064B074810B500221A7000F049FC044637
:10E9500010B9044800F040FD204610BD442B0020B3
:10E96000F47202009466020030B499B10D490E4D64
:10E97000491BC90813D00D4C002302E00133994212
:10E980000AD034F823208242F8D1184655F83000D6
:10E9900030BC7047044DF9E7002030BC7047084692
:10E9A000F6E700BF587302000873020074270020C6
:10E9B000094B013903EBC00303290BD8DFE801F051
:10E9C00004020806042070470220704758797047F7
:10E9D000187970470020704708730200704700BF25
:10E9E0002DE9F0438B4CD4E901239A4285B05DD0E8
:10E9F0000023C4F81834BFF34F8FA568EAB2D31CC4
:10EA000004EB830014F82330590718D5666803789F
:10EA100003F00303012B42D0022B03D143880235BC
:10EA200005EB9315EAB2D4F81814D31C04EB830059
:10EA300029B9AE4239D914F823305B07E7D404EB87
:10EA400082026B1CDBB2D26804EB830302F0030189
:10EA5000DB680229CDE9012305F102062AD001294C
:10EA600000F08A80D4F810543DB12B6828469B688A
:10EA70009847EB681D68002DF7D16748674B6849D8
:10EA8000C01AC008000440F0020000F091FAD4E976
:10EA90000130C01A18BF012005B0BDE8F08303881B
:10EAA0000235C3F383131D44BCE7A660002005B004
:10EAB000BDE8F083BDF806305A48C3F389184546CF
:10EAC000502D28BF502565F38F1305F10801ADF8CF
:10EAD000063000F087FB07460028C3D000F0CEFBCD
:10EAE0000023082201A9384600F0F8FBF343DBB20B
:10EAF0000133B5EB830F4FEA83097FD9F1B2A5EB60
:10EB00000905033104EB81014A4638460823EDB27A
:10EB100000F0E4FB444909F108032A46384600F0B6
:10EB2000DDFB08F1030806EB9806D4F81834D4F896
:10EB30001054002B5ED165B1EB685A7928463946EE
:10EB4000002A65D02B681B689847EB681D68002D6C
:10EB5000F2D1384600F096FB00230DF103008DF84A
:10EB6000033001F02FFBD4F8183403B9A6609DF8E8
:10EB7000030001F04DFB8AE7BDF804202948C2F3E9
:10EB80008313062B28BF062363F38912023303F095
:10EB90000F018900ADF8042000F024FB074600288F
:10EBA0003FF460AF00F06AFB0023082201A9384659
:10EBB00000F094FBBDF8043013F4707FB5D06FF013
:10EBC00001094FF00808A9EB0509F1B203314346EA
:10EBD000042204EB8101384600F080FBBDF80430CC
:10EBE0000136C3F3831309EB0602934208F10408CC
:10EBF000EBD89AE7384600F045FB48E7F1B203311D
:10EC00002A4604EB81010823384600F067FB88E7B9
:10EC10001D6890E7442B0020107302000873020067
:10EC20007C660200F4720200502B00202DE9F04FA8
:10EC3000DFF8BCB189B0002406460DF11300019342
:10EC4000894692468DF8134001F0BCFADBF8083093
:10EC5000DBF8047003F58073DB1B032B00F2C48028
:10EC6000CDE902760BF21C450BF583680BF21444D8
:10EC700019E0BDF81620C2F389120332360C07EBF7
:10EC80009207204602F0B8FC3146002839D02846C9
:10EC9000CBF8087002F08CFCDBE9012303F58073EC
:10ECA0009B1A032B5CD80121284602F081FC4046C8
:10ECB00002F096FC204602F093FCDBF80870FAB2F2
:10ECC000D11C0BEB810C1BF821104B0701F0040049
:10ECD00027D40BEB82017A1CC9680591D2B20BEBE9
:10ECE000820201F003000128D66807F1020730D044
:10ECF0000228BED0204602F07FFC002631460028C4
:10ED0000C5D12846C6E7BCF8027001EB9717FAB2E6
:10ED1000D31C0BEB830C1BF8230000F0040000282D
:10ED2000D7D09CF8003003F00303012B0AD0022B4C
:10ED300007F1020102F10303E5D00BEB830C00287D
:10ED4000EFD1C6E7BCF800300237C3F383131F448A
:10ED5000DDE7BDF81420C2F38312360C174490E7A8
:10ED6000DDE90276D3B2033385214BF82310043258
:10ED70009DF81300CBF8042001F04AFABB1CDBB26B
:10ED80000BEB8303019AC3F80CA0FB1CDBB20BEB6B
:10ED9000830300211548DA6002F0E8FB80F31001DC
:10EDA000F300781C03F03803C0B2FAB2090443F050
:10EDB00081030BEB8000033243EA892341EA1641C9
:10EDC000C1604BF822309BF8003023B9FFF706FEF4
:10EDD00009B0BDE8F08FFFF703FE0028F6D0FFF77B
:10EDE000FFFD0028F7D1F1E73A46BBE7602F00208E
:10EDF000442B00202DE9F04FDFF8B0B187B000239D
:10EE000006460DF10B008DF80B30CDE9001201F034
:10EE1000D9F9DBE9018303F58073A3EB0803022B27
:10EE200000F281800BF21C450BF583670BF2144452
:10EE30001AE0BDF80E20C2F3891203324FEA114ADC
:10EE400009EB9209204602F0D7FB514600283AD040
:10EE50002846CBF8089002F0ABFBDBE9012303F571
:10EE600080739B1A022B5FD80121284602F0A0FB79
:10EE7000384602F0B5FB204602F0B2FBDBF8083062
:10EE8000DAB2D11C0BEB810C1BF8211001F004004D
:10EE9000490728D40BEB82015A1CC9680391D2B2EE
:10EEA00001F003000BEB82020128D16803F1020993
:10EEB00031D00228BDD0204602F09EFB4FF0000A60
:10EEC00051460028C4D12846C5E7BCF802300EEBF5
:10EED0009313DAB2D11C0BEB810C1BF8211001F05B
:10EEE00004000028D6D09CF8001001F0030101298D
:10EEF0000AD0022903F1020E02F10301E5D00BEB67
:10EF0000810C0028EFD1C5E7BCF800200233C2F322
:10EF100083121344DDE7BDF80C20C2F383124FEADD
:10EF2000114A91448EE74246D3B2033345214BF850
:10EF3000231003329DF80B00CBF8042001F068F990
:10EF400008F10203DBB20BEB8303019A1648DA6087
:10EF5000002102F00BFB80F31001F300009A03F094
:10EF6000380343F0410308F1010043EA8223C0B2B1
:10EF70005FFA88F209040BEB8000033241EA164184
:10EF8000C1604BF822309BF8003023B9FFF726FD13
:10EF900007B0BDE8F08FFFF723FD0028F6D0FFF79C
:10EFA0001FFD0028F7D1F1E7602F0020442B00203F
:10EFB0002DE9F04FDFF8A0A187B0002306460DF140
:10EFC0000B008DF80B30019101F0FCF8DAE90183B8
:10EFD00003F58073A3EB0803012B00F281800AF292
:10EFE0001C450AF583670AF214441AE0BDF80E3096
:10EFF000C3F3891303334FEA11490BEB930B2046FC
:10F0000002F0FAFA494600283AD02846CAF808B071
:10F0100002F0CEFADAE9012303F580739B1A012B83
:10F020005FD80121284602F0C3FA384602F0D8FA28
:10F03000204602F0D5FADAF80830DAB2D11C0AEB31
:10F04000810C1AF8211001F00400490728D40AEBBA
:10F0500082015A1CC9680391D2B201F003000AEB85
:10F0600082020128D16803F1020B31D00228BDD001
:10F07000204602F0C1FA4FF0000949460028C4D1E9
:10F080002846C5E7BCF802300EEB9313DAB2D11C68
:10F090000AEB810C1AF8211001F004000028D6D0E8
:10F0A0009CF8001001F0030101290AD0022903F1A4
:10F0B000020E02F10301E5D00AEB810C0028EFD12A
:10F0C000C5E7BCF800200233C2F383121344DDE726
:10F0D000BDF80C30C3F383134FEA11499B448EE70C
:10F0E0004246D3B2033305214AF8231002329DF879
:10F0F0000B00CAF8042001F08BF80021154802F03B
:10F1000035FA80F31001F300019A03F0380343F05D
:10F11000010308F1010043EA8223C0B25FFA88F2DA
:10F1200009040AEB8000033241EA1641C1604AF843
:10F1300022309AF8003023B9FFF750FC07B0BDE841
:10F14000F08FFFF74DFC0028F6D0FFF749FC0028B0
:10F15000F7D1F1E7602F0020442B002030B4154D8B
:10F16000D5F81014044679B100200B4601E01B6865
:10F170005BB1DB681A798242F9D101300A28F4D1F7
:10F180004FF0FF3030BC70470846E3681871D5F87F
:10F1900010344BB1DA68E36812681A60D5F810349D
:10F1A000DB681C6030BC7047C5F81044E26813602F
:10F1B00030BC7047442B002038B5084BD3F81044BE
:10F1C00001251D704CB1E3685D71236820465B68C2
:10F1D0009847E3681C68002CF5D138BD442B00200B
:10F1E00002F016BA2DE9F041078ACE1C043F3E44D6
:10F1F0000546B6FBF7F602F029FA002834D0F6B23D
:10F200004FF48073013E04468380C78005602CD094
:10F2100003464FF0000807E06279464502F101021B
:10F2200062713860056020D028461F4602F00EFA51
:10F2300008F1010803460028EED16779791E17D03E
:10F240002246013399421268FBD1D2F800805FB1A7
:10F250002668002501E034463668214640460135DF
:10F2600002F01CFAAF42F6D800242046BDE8F08137
:10F270002068214602F012FAF6E700BF01210430AF
:10F2800002F096B92DE9F04101210446043002F064
:10F290009BF910F0FF0301D0BDE8F0816779791E7A
:10F2A00016D02246013399421268FBD1D2F8008071
:10F2B000002FF1D02668002501E03446366821464B
:10F2C0004046013502F0EAF9AF42F6D8BDE8F081D8
:10F2D00020682146BDE8F04102F0E0B92DE9F8438D
:10F2E0008846C788417907FB01F1043902EB030C1A
:10F2F0001E1D6145154638BFCD1AB7420446B6FB00
:10F30000F7F207FB126002D8013A2468FCD13E1ADA
:10F31000AE4228BF2E469DB14FF000090430AD1B10
:10F32000324608EB0901204406F070FBAF42B144BD
:10F3300024683E464FF0000028BF2E46002DEDD138
:10F34000BDE8F8832DE9F8430446C788407907FBF8
:10F3500000F0043802EB030C1E1D6045154638BF53
:10F36000C51AB7428846B6FBF7F207FB126102D80E
:10F37000013A2468FCD17E1AAE4228BF2E469DB1C8
:10F380004FF0000904312144AD1B324608EB09005F
:10F3900006F03CFBAF42B14424683E464FF000010A
:10F3A00028BF2E46002DEDD1BDE8F883064A074B55
:10F3B00010B5002414701C60BFF35F8F044905482A
:10F3C00000F022FA204610BDD4300020D8300020B2
:10F3D000A0660200CC30002082680023936082681F
:10F3E0001361826853618268D36082685360826867
:10F3F0001360704760DF704769DF704761DF7047F7
:10F4000030B5154DADF5017D4FF4FA740DF10201E3
:10F4100003A8ADF80240FFF7F1FF88B9294601A81B
:10F4200000F0F2F9029B002BF0D0D3E9003103A8E1
:10F43000984701A800F0F2F9029B002BF5D1E5E70F
:10F44000052802D10DF5017D30BD0DF5017DBDE82A
:10F45000304000F0F7BB00BF38690200024B1B7858
:10F460000BB1FFF7CDBF7047DC300020002900F062
:10F47000C18030B5604B0B6085B005460C460C2250
:10F48000002101A806F012FA01238DF80630226847
:10F490008DF80450062301A92020ADF80830FFF7AD
:10F4A000ABFF002850D10C22002101A806F0FEF984
:10F4B000012322688DF8053001A94020FFF79CFF49
:10F4C000002840F089800C22002101A806F0EEF906
:10F4D000F72322688DF8045001A92320ADF80630E7
:10F4E000FFF78AFF002869D10C22002101A806F04D
:10F4F000DDF9012022688DF8040001A9FFF77CFFE7
:10F5000000284DD10C22002101A806F0CFF94FF4BC
:10F51000B0632268019301A9A120FFF76DFF88BBAA
:10F520000C22002101A806F0C1F99DF804302268E0
:10F530006FF3000301A9A0208DF80430FFF75CFFF2
:10F5400080B9002005B030BD00F074F92B4B2C4978
:10F5500002462C48181AC008000440F00100FFF7CA
:10F5600049FCA0E700F066F9244B274902462548EC
:10F570001B1ADB081B0443F00100FFF73BFC0020D3
:10F5800005B030BD00F056F91C4B204902461D481D
:10F59000181AC008000440F00100FFF72BFCBFE779
:10F5A00000F048F9154B1A4902461648181AC008C7
:10F5B000000440F00100FFF71DFCA3E700F03AF95A
:10F5C0000E4B144902460F48181AC008000440F0B8
:10F5D0000100FFF70FFC87E700F02CF9074B0E49FD
:10F5E00002460848181AC008000440F00100FFF75E
:10F5F00001FC68E70E2070470826002040730200D7
:10F60000B86602000873020034680200E067020076
:10F61000946702004C67020000670200F8B50446D8
:10F620000768FFF7E7FE2368BB42054605D825BB00
:10F630001A4B01221A702846F8BD194B194E1A4967
:10F64000F61AF608360446F002063046FFF7B0FC1C
:10F65000236816493A463046FFF7E8FA4FF08053E0
:10F660002268D3F80C3112499B0203F100539A1A15
:10F670003046FFF7BFFB002DDAD0284600F0DAF85D
:10F68000084B0C49024606481B1ADB081B0443F0D2
:10F690000100FFF7AFFB2846F8BD00BFDC300020BB
:10F6A000087302004073020088680200B868020014
:10F6B000EC6802001869020010DF704730B5394D60
:10F6C000394985B0012302A82B7000F09DF8039BF7
:10F6D00023B90FE000F0A2F8039B5BB1D3E900313E
:10F6E00000209847034602A8002BF3D100242046AF
:10F6F00005B030BD2D4902A800F086F8039B4BB140
:10F70000D3E900310020984702A800F087F8039B56
:10F71000002BF5D1264B02A81A68019200238DF820
:10F72000083000F04FFD234901A8FFF7C5FF224A2A
:10F73000B0FA80F304465B099DF80800137000F0EE
:10F7400067FD002CD3D11D4B1D491C702C7091F806
:10F750001623EC2352091341DB071DD5194B9A6878
:10F76000AAB94FF480030B60104902A800F04CF8CE
:10F77000039B002BBAD0D3E900310120984702A89F
:10F7800000F04CF8039B002BF5D10024AFE71A687A
:10F7900042F480021A60E7E742F2020000F052FAF7
:10F7A000E2E700BFDD300020686902005C6902000A
:10F7B0007C69020065FC0100DF300020DE300020A3
:10F7C00000E100E098310020034B1B780BB9FFF7F4
:10F7D00075BF0820704700BFDF30002000B583B040
:10F7E0000849684600F010F8019B43B1D3E90020B6
:10F7F0009047684600F012F8019B002BF6D103B049
:10F800005DF804FB5069020001600B6843604A68C0
:10F81000934208BF00234360704700BF436843B171
:10F82000026891680B4443605268934204BF00230E
:10F83000436070470E49A1F5947205E052F83330E9
:10F84000984238BF614607D28B1A1B11914202EBD6
:10F85000C30CF3D80748704702D90CF10802F3E74C
:10F86000DCF80400034B002808BF1846704700BFAF
:10F87000946E0200946E020038B5174B1D783DB3AC
:10F88000164A1168C0B200230C4604E00133AB42B3
:10F8900004F108041CD011F833209042F6D102F094
:10F8A00009FB6378A3F10103B3FA83F35B09834295
:10F8B00000D038BD0A4AD2E900321343F9D1094BCE
:10F8C000094819680022BDE83840490800F0E0BB4B
:10F8D00000231B78FFDE00BF0C3100201031002018
:10F8E0000031002008310020A82600202DE9F04733
:10F8F000DFF86092DFF860A299F8003082B0002B48
:10F900004FD0DFF85882904F0024D8F8005015F8F7
:10F91000340002F0CFFA15F8346005EBC405720824
:10F920006B78B95CA3F10103B3FA83F3F5074FEAEF
:10F93000531340F1A2800D09042D00F29B80DFE8F3
:10F9400005F0033847544E00834240F093800F2067
:10F95000102301400B43BB540DF1070000238DF829
:10F96000073000F02FFC0122A6F12003C6F1200190
:10F9700022FA01F102FA03F30B43DAF800109DF8C2
:10F980000700B2401143DAF80420CAF800101A4305
:10F99000CAF8042000F03CFC99F80020013494429D
:10F9A000B3DBDAE90032134340F0C38002B0BDE8B4
:10F9B000F087181AB0FA80F0400943010F20084080
:10F9C0000343BB5499F80020013494429DDBE8E7DF
:10F9D00083424FF00F0040F0AA8030236AE0834258
:10F9E00040F0A3800F20302396E0834242D00F20C6
:10F9F000402391E0834200F09580F02399F8005075
:10FA00000B40BB54A5B1D8F800000023024603E028
:10FA1000AB4202F108020BD010F83310B14203F1EF
:10FA20000103F5D122B1536813B100213046984744
:10FA300000230DF107008DF8073000F0C3FB012211
:10FA4000A6F12003C6F1200122FA01F102FA03F324
:10FA50000B43DAF800109DF80700B24021EA0201DA
:10FA6000DAF80420CAF8001022EA0302CAF80420D7
:10FA700000F0CEFB99F80020A6E701F00F05042D59
:10FA8000F8D80FF2080C5CF825F000BF0DFB010060
:10FA9000FFFA0100ABFA0100A1FA0100F5F901003B
:10FAA0008342E7D0F020042336E083424FF0F00099
:10FAB00031D1032301400B43BB5499F80020002AA5
:10FAC0003FF46FAFD8F800500023294604E093427A
:10FAD00001F108013FF478AF15F83300B04203F1AB
:10FAE0000103F4D100293FF46FAF4B68002B3FF4C2
:10FAF0006BAF30460121984799F8002064E7181A47
:10FB0000B0FA80F040094300F02058E78342B1D1B9
:10FB1000F02001231DE7012301400B43BB5499F85A
:10FB2000002051E7F0200323F6E70F2366E71023B8
:10FB3000F2E7064B064819680022490802B0BDE802
:10FB4000F04700F0A5BA00BFE030002008310020E7
:10FB5000A82600200C3100200031002010310020A8
:10FB6000092A3FD9F0B583B0144605460E4602F087
:10FB70001FF888B3204B214A1E70214B15600021CD
:10FB800020481C60202205F091FE1F4B0020002120
:10FB9000741EC3E90001E4B236B31C4F05EBC40484
:10FBA000032602E0A5421FD01C469DF8063094F8BB
:10FBB00002C020788DF8046023F007033A4601A9BB
:10FBC0008DF806308DF805C001F0FCFFA4F10803A4
:10FBD0000028E7D003B0F0BD01F090FF0028C9D0A5
:10FBE00003B0F0BD07207047094A0A48002103B05E
:10FBF000BDE8F04000F034BA0C3100201031002094
:10FC000008310020E03000200031002079F80100A8
:10FC1000EDF80100A86E020070B5084D2B785BB1BD
:10FC2000074E00243368012113F8340002F0CAF8AB
:10FC30002B780134A342F5D8002070BD0C31002090
:10FC40001031002000B585B00346002101AA44F21E
:10FC50000100CDE90111039300F004F805B05DF84F
:10FC600004FB00BF10B572B6FFF7A6FAFEF7B8FEA8
:10FC70000028FBD1104B114C1149E41AE40824046C
:10FC800044F00100FFF794F90E4BD3F8F030DB0796
:10FC900000D500BE0C4944F00200FFF789F9BFF31C
:10FCA0004F8F0849094BCA6802F4E0621343CB60E6
:10FCB000BFF34F8F00BFFDE708730200107302000F
:10FCC000B86E020000ED00E0C46E02000400FA0508
:10FCD00030B48D688468C268CB68A54293412CBF5C
:10FCE0000120002030BC704730B5344B1D7883B004
:10FCF0001DB90025284603B030BD04460028F8D0C1
:10FD00002F4801F077FB2F4B1A685B6880182E4A4A
:10FD1000D2E9001243F10003884273EB020203D2DE
:10FD200010F1807043F10003D4E90212884293413C
:10FD30000AD2B2F1FF3F08BFB1F1FF3FD9D023484B
:10FD4000214601F0AFFED5E700230DF107008DF845
:10FD5000073000F037FA23692BB94FF0FF324FF02C
:10FD6000FF33C4E902239DF8070000F051FAD4E9FB
:10FD70000530984700230DF107008DF8073000F09B
:10FD800021FA2369ABB1D4E90212B2F1FF3F08BFF7
:10FD9000B1F1FF3F0DD05B1842F100029DF8070062
:10FDA000C4E9023200F034FA0848214601F07AFE34
:10FDB000A0E79DF8070000F02BFA9AE790310020A9
:10FDC000C82600208831002080310020D46E020037
:10FDD0002DE9F04F83B0814601F0E0FA40B17C4A52
:10FDE000D2E9003113F1807341F10001C2E9003121
:10FDF0000021484601F0EEFA764D30B12B6823B170
:10FE00002868FFF771FF00232B600121484601F0AD
:10FE1000E1FA002840F0C4806F4801A901F064FBBA
:10FE200000283AD06C4C4FF0FF3A4FF0FF3B09E00E
:10FE300033B301A9204601F089FB01A9204601F056
:10FE400053FB50B30378012B11D0022BF0D1634E3A
:10FE5000304601F03BFE30B1C0E902AB304601F064
:10FE600035FE0028F8D15E4B01221A70E1E72B68BD
:10FE70004168994200F09180584801F031FED8E77E
:10FE80004168D1E90223B3F1FF3F08BFB2F1FF3F60
:10FE9000CFD0524801F006FECBE7504E514FDFF86D
:10FEA0003081304601F018FE002853D0D0E90223FB
:10FEB000B3F1FF3F08BFB2F1FF3F6AD0296891B1AB
:10FEC0002968D1E9020182428B4159D22B68D3E9DA
:10FED0000223B3F1FF3F08BFB2F1FF3F03D029680F
:10FEE000304601F0DFFD304601F0F0FD04463846B3
:10FEF000D4E902AB01F07EFA3B4BD8F80410D3E909
:10FF000000E2D8F80030C31841F10001734571EBED
:10FF1000020C03D213F1807341F10001BAEB030329
:10FF20006BEB010B012B7BF1000B1BDBB3F5350FEA
:10FF300029D252464FF496030021384601F0A4F925
:10FF4000C0B10D2812D0002330462B6001F0C4FD53
:10FF50000028ABD12B689BB9484603B0BDE8F04FF1
:10FF600001F064B90021384601F028FA2046FFF775
:10FF7000BBFEE8E72B6813B9484601F053F92C6043
:10FF800003B0BDE8F08F384601F034FA174A024456
:10FF9000D0E7304601F09AFD83E700232B6048E765
:10FFA000104801F027FA0A4B1A685B6880180E4A5D
:10FFB000D2E9004143F10003A04273EB010103D2F7
:10FFC00010F1807043F10003C2E9000324E700BF91
:10FFD000883100209431002018310020D46E0200B6
:10FFE00090310020C826002080310020FFFFB4009F
:10FFF00010B5134B13491C68134882B008235822CC
:020000022000DC
:10000000019401F017FA044610B1204602B010BD69
:100010000E4A0F4801A901F0A1F804460028F4D1C6
:100020000B48012101F0B0F901231946094A08489B
:1000300001F000F9084B012220461A7002B010BDF1
:10004000EC6E02002831002018310020D1FD0100A3
:10005000C8260020FFFF7F00903100200000000034
:100060006AB19FED097BA1F101010368B1FA81F149
:10007000490983ED027BC3E9041200207047072081
:10008000704700BFAFF30080FFFFFFFFFFFFFFFFE0
:10009000F0B583B00446002601A817460D468DF83A
:1000A000046000F08FF8D4E90223B3F1FF3F08BFEA
:1000B000B2F1FF3F06D09DF8040000F0A9F83046E9
:1000C00003B0F0BD1C4801F095F91C4B1C4A19689F
:1000D0005B684018D2E9001243F10003884273EBD9
:1000E000020220D3281843F10003A060E3609DF8CA
:1000F000040000F08DF82369A76103B12561114860
:1001000001A901F0AFF9034650B100220D481A7061
:100110005C6001A901F0D8F950B9002003B0F0BD2E
:10012000042003B0F0BD10F1807043F10003D9E763
:10013000014801F063F9F0E7C8260020883100206B
:10014000803100201831002030B583B004460025EE
:1001500001A88DF8045000F035F8D4E90223B3F17A
:10016000FF3F08BFB2F1FF3F1DD04FF0FF334FF00C
:10017000FF32C4E902239DF8040000F049F80F485B
:1001800001A901F06FF9034650B101220B481A7022
:100190005C6001A901F098F960B9002003B030BD9E
:1001A000042003B030BD9DF8040000F031F828466B
:1001B00003B030BD024801F021F9EEE7183100200C
:1001C000C826002070B4EFF3108472B60D4A93680D
:1001D000ABB9012191600C490C4ED1F880503540EB
:1001E0001560C1F88060D1F8845055604FF0FF323F
:1001F000C1F88420037004B962B670BC7047012353
:10020000F8E700BF9831002000E100E0FC06FFBDE8
:10021000094B9A687AB170B910B4EFF3108172B6D5
:10022000064A1C6814605C685460986001B962B644
:100230005DF8044B704770479831002000E100E002
:1002400072DF704773DF704774DF7047F8B504469C
:1002500000F1EA0681700D4607220021304605F0C4
:1002600025FBE38813B1A378012B61D0E379002B40
:100270005BD194F8EB30002B64D194F8EC30002B78
:1002800060D194F8ED30002B5CD194F8EE30002B67
:1002900058D194F8EF30002B54D194F8F030003B53
:1002A00018BF0123013D032D00F23681DFE805F080
:1002B00002060A0EA279002A40F00681E279002A9D
:1002C00040F0E180237A002B40F0F880637A002B25
:1002D00040F0DF80A370002384F8F33004F13C0584
:1002E00018220021284605F0E1FAE36A591E01228E
:1002F000022928BF134684F8513094F8243084F83A
:100300003C2033B1A36A591E022928BF134684F842
:100310005230A378002284F85020042B00F2F180A0
:10032000DFE803F046A250711200A378022BA0D19F
:10033000636B002B00F0E880012284F8F120082094
:10034000984796E70123ADE7D4E907126379616422
:10035000A4F84820002B00F0C18094F8F230002B64
:1003600040F0BC8094F8F430002B00F0B7800223FA
:10037000B4F8D810D4F8D40084F85030012202F038
:1003800029F908B10423037004F1D40704F15406D9
:100390002A4639463046FFF753FF002840F0B78021
:1003A000062384F83130A378C4F8E4701BB19EE0D2
:1003B000002384F83130636B13B194F8310098470F
:1003C0000020F8BDD4E903320221C4E91063A4F887
:1003D00048200323002284F83110C4F8E42084F874
:1003E0003C30002104F154062A463046FFF728FF2E
:1003F0000028E6D194F8301094F85400FFF722FF5B
:100400000028D8D0F8BDD4E9051263796164A4F856
:100410004820002B6ED094F8F230002B6AD194F86B
:10042000F430002B66D00223B4F8D810D4F8D400EE
:1004300084F85030012202F0CDF808B10423037093
:1004400004F1D40704F154062A4639463046FFF732
:10045000F7FE00285BD1052384F83130A378C4F877
:10046000E470002BA7D042E000230122C4E910630E
:1004700084F83120C4F8E4300222802384F83C2040
:10048000A4F84830ADE7002B3FF41CAF0223A37063
:1004900021E7626B0423A370002A3FF41CAF637949
:1004A000002B3FF418AF94F8F230002B7FF413AF19
:1004B0000123A4F8F330072090470FE7626B032372
:1004C000A370002AEBD106E794F82420002A7FF4D9
:1004D000F5AE002B3FF4F6AE0123FBE6042204F157
:1004E000D40384F83120C4F8E43004F15406D4F87D
:1004F000E41079E7032204F1D40384F83120C4F82E
:10050000E43004F15406F2E784F8F130B1E6A37860
:10051000002B3FF450AFEAE70023A370DBE600BFF7
:1005200080F83010704700BF002973D02DE9F041EA
:100530000446002870D091F87A300D46002B62D125
:10054000D5F8A030042B62D0D5F89C30042B5ED0B7
:100550000027A77005F1780EBEE80F0004F1040C27
:10056000ACE80F00BEE80F00ACE80F009EE8070003
:100570008CE8070084F83070D5F8A4306363D5F8B0
:10058000A830A3634FF6FF7804F1D406394607225A
:10059000C4F8E460A4F8E88004F1EA0005F086F904
:1005A00023780BB984F85480224604F155011F26A4
:1005B000C4F8D410284622F8D86F01F0F9FD38BBF2
:1005C000224604F19301C4F8DC1005F13C0022F846
:1005D000E06F01F0EDFDD8B9D4E905230125A4F8B9
:1005E00048304FF48073C4E91002014684F83C504F
:1005F00004F13C0204F15400A4F85030FFF720FE4F
:1006000030B9257004E091F89830002B98D007207D
:10061000BDE8F0810E2070470E20F9E703780BB19A
:10062000FFF714BE0820704710B50388112B0C4645
:100630000BD0262B22D0102B00D010BDC37B012B5A
:10064000FBD18388A1F8E83010BD002381F8F23097
:100650008288B1F8E8309A42EFD10B79002BECD1C7
:100660000B7813B301212046FFF7F0FD0028E4D0FA
:10067000A36B002BE1D0BDE810401847037A013B83
:10068000012BDAD80B7889787BB1094B0131A3FBB8
:10069000012303F4FE7202EB9303C91AC9B2204688
:1006A000FFF7D4FD0028E3D110BD0820E0E700BF2C
:1006B000CDCCCCCC38B5044690F85400FFF7C4FD3F
:1006C00000230122B4F8D810D4F8D40084F8F22022
:1006D00084F8F43084F8503001F07CFF08B1062330
:1006E000037004F13C0204F1D40104F15400FFF75B
:1006F000A7FD054648B92378A17843B12046FFF706
:10070000A5FD10B1A36B03B19847284638BD08205A
:10071000F8E700BF75DF704776DF70477ADF704714
:100720007BDF704770B51D4D2B8884B2A34282B029
:1007300011D11B4E297A327B91420ED3337C002299
:100740002A72F3B9736933B100228DF80420ADF831
:10075000064001A8984702B070BD05F10A0118468D
:10076000FFF7D8FF40B11128F5D0B369002BF2D0C4
:1007700002B0BDE8704018472B7A01332B7202B0EB
:1007800070BD3B212046FFF7C7FF30F00803D9D0EA
:10079000B369002BD6D09847D4E700BFC8310020FA
:1007A000AC31002070B50288122A82B003466ED0A8
:1007B00015D8102A30D0112A0FD16B4C828823888B
:1007C0009A420AD16068FFF7BFFC18B1674B9B697A
:1007D00003B198474FF6FF73238002B070BD502AD3
:1007E000FBD1624DC188EA899142F6D1028A022A80
:1007F000F3D15D4C828826889642EED1123000F00B
:1008000041FA002800F09B80637A002B40F09E8024
:10081000D5E9013132466AE090F80FC08288BCF118
:10082000010FDAD1504C20884FF6FF7188427FD1FA
:100830004F4D22800021217203CDC4F80A00C4F874
:100840000E10588A6589B4F80CE0E189854260D8B9
:1008500086455ED340F2F315A9429B8A94BF481A9D
:10086000481B984255D82944994252D33F4D84F8A9
:1008700009C0EB89002BB0D16B69002BADD00121F1
:100880008DF80410ADF8062001A89847A5E7364C6E
:10089000828821889142A0D14089B4F80AC0B4F876
:1008A0000CE0E58984451DD886451BD340F2F31C36
:1008B00065459B8994BF681BA5EB0C00984211D835
:1008C00065449D420ED3294B5B694FF480722281AF
:1008D000002B82D001228DF80420ADF8061001A86B
:1008E00098477AE7214D002161726B68A968207AE8
:1008F000002808BF19466068FFF7CAFB00283FF4CC
:100900006CAFAB69002B3FF468AF02B0BDE870403C
:100910001847164DEB8900216172002B7FF45DAF03
:1009200069686068FFF7B4FB00283FF456AFE8E75A
:100930000E4B9B69002B3FF450AF0420E5E7606845
:10094000FFF702FC00283FF448AFDAE76B690022AA
:100950002272002B3FF441AF01228DF80420ADF844
:10096000066001A8984738E7C8310020AC31002064
:10097000A431002070B3F8B586460768164E174DAF
:100980000446BEE80F00B446ACE80F009EE807003E
:1009900035608CE80700BFB13846FFF7BFFE90B95D
:1009A00023681868596803C50D4B0E490E4A18464E
:1009B0004FF6FF7440F8041F00211C80FFF750FB26
:1009C000002818BF0320F8BD2846FFF7A9FE00281D
:1009D000EAD0F8BD0E207047AC310020A4310020D1
:1009E000C8310020E031002025070200A8DF704751
:1009F000ADDF7047AEDF704762DF704700295AD025
:100A000070B504468AB038B10388502B0D4653D0D8
:100A1000572B39D0102B01D00AB070BD818868697E
:100A2000002601AA019601F0FBFD082231460DEBDC
:100A3000020004F03BFF02232989A088CDF80CD0E6
:100A400002AA0293FFF7D4FF0028E5D1AB69002B7F
:100A5000E2D0039800F016F90028DDD0019B0BB11D
:100A600001221A701822002104A804F01FFFA18897
:100A7000019A02238DF81030AB690595ADF8181076
:100A8000079204A89847C7E78188686902AA01F01D
:100A9000C7FD0028C0D1029B1B78002BBCD0AB69DE
:100AA000002BB9D00146182204A804F0FFFEA1884B
:100AB000029A0123DEE770478188686902AA01F083
:100AC000AFFD1822002104A804F0F0FEE388298974
:100AD000A288ADF818209942029A0595079210D085
:100AE000AA899A4298D1AB69002B95D0228AADF899
:100AF0002420002112348DF81010089404A898477F
:100B00008AE7268A022EEBD1002A85D004F1120052
:100B100000F0B8F8029B38B101221A70AB698DF869
:100B20001060002BADD177E703261870F6E700BF01
:100B3000F0B5364B0D4604460FCB8FB00DF1080CC7
:100B40008CE80F00002C5ED0002D5CD02B68A361D8
:100B500021466046FFF750FF08B10FB0F0BD2246B6
:100B6000012512F8023B8DF8063001A92846ADF8A0
:100B70000450FFF73BFF0028EFD10146202206A8D2
:100B800004F094FE22460223ADF8183012F80C3B14
:100B90008DF81A30BDF824301D4E6088079623F476
:100BA0004F6323F00F0343F440632B4340F20117DC
:100BB00006A9ADF82430ADF8297000F067F80028D8
:100BC000CBD10146202206A804F070FEBDF82430E7
:100BD0006088079623F4875323F01F03224643F4CB
:100BE00080532B43ADF8243012F8043B8DF81A30B3
:100BF00006A90323ADF829708DF82B50ADF81830F5
:100C000000F044F8A9E70E200FB0F0BDF86E020026
:100C1000F400010060B3F0B587B00E4617460446F5
:100C200001AA406919461D4601F0FAFCD8B94FF6F1
:100C3000FF739D4219D0019BBBB11B78EBB13B8880
:100C4000F42B17D80146102202A804F02FFEA38827
:100C5000ADF8083002A901232846CDE904768DF8C5
:100C60000A30FFF7C7FE07B0F0BD052007B0F0BDA2
:100C70000E207047072007B0F0BD0820F3E700BF43
:100C8000AADF7047008800F001007047F0B58B784C
:100C900091B0012B38BF01230C468DF80E3005466C
:100CA0000B88ADF80C30164600210322684604F08C
:100CB000FDFD637C0022013B8DF80020042B09D848
:100CC000DFE813F0CF00D300D7000500DB001223CC
:100CD0008DF80030A37C0022013B8DF80120042B0D
:100CE00009D8DFE813F0CE00D200D6000500BA0024
:100CF00012238DF80130237D217B013303F00303A0
:100D000041EA4301E37B41EAC301237C41EA031149
:100D10009DF8023001F01F0123F01F0319438DF8E5
:100D200002101C22002109A804F0C0FD637B13F00F
:100D3000300F71D1637B8DF824301422A37B8DF8A2
:100D40002530002104A804F0B1FDA288A368ADF805
:100D50001C2003AACDF814D004921BB10893E38899
:100D6000ADF81830A369002B34D001AF0322002165
:100D7000384604F09BFDA2691188ADF82C100023C1
:100D80008DF804305388ADF82E3053680D970A93D0
:100D9000137B013B042B2BD8DFE803F093979B27B1
:100DA000870012238DF80530917B137A013101F011
:100DB000030143EA4103917AD27A43EAC10343EA49
:100DC00002139DF8062003F01F0322F01F021343B5
:100DD0008DF80630E36903B10C93334604AA09A9E0
:100DE0002846FFF74DFF11B0F0BD12238DF80430F7
:100DF000537B0021013B8DF80510042BD4D801A1B1
:100E000051F823F0B30E0200BB0E0200A30E020045
:100E1000A30D02009B0E020002AF03220021384600
:100E200004F044FDE37C0022013B8DF80920042BF3
:100E300007D8DFE803F0525E5A03560012238DF8FC
:100E400009309DF80A300E97012262F342038DF8B3
:100E50000A3011238DF808306CE722238DF8013019
:100E600049E711238DF8003034E721238DF8003055
:100E700030E731238DF800302CE722238DF8003045
:100E800028E711238DF8013035E721238DF8013053
:100E900031E731238DF801302DE722238DF805301D
:100EA00082E731238DF805307EE722238DF8043068
:100EB0009EE711238DF8053076E721238DF8053064
:100EC00072E711238DF8043092E721238DF8043066
:100ED0008EE731238DF804308AE711238DF809302D
:100EE000AFE722238DF80930ABE731238DF80930C5
:100EF000A7E721238DF80930A3E700BF074B1B5C50
:100F00001F2B8ABF064A4FF0A04203F01F03D2F8FE
:100F10000405D84000F00100704700BF0C6F0200CC
:100F200000030050064B1A5C1F2A86BF054902F0D9
:100F30001F024FF0A04101239340C1F808357047CC
:100F40000C6F020000030050064B1A5C1F2A86BF7C
:100F5000054902F01F024FF0A04101239340C1F860
:100F60000C3570470C6F0200000300504FF0A04397
:100F70004FF400104FF4800210B4C3F80C054FF486
:100F80000044C3F80C254FF08072C3F80C454FF4B1
:100F90000020C3F80C254FF08052C3F80C054FF425
:100FA0000064C3F80C250849C3F80C454FF0004213
:100FB000C3F80C2520204FF08042C1F80C05C3F87F
:100FC0000C255DF8044B7047000300504FF0A04320
:100FD0004FF400104FF4800210B4C3F808054FF42A
:100FE0000044C3F808254FF08072C3F808454FF459
:100FF0000020C3F808254FF08052C3F808054FF4CD
:101000000064C3F808250849C3F808454FF00042BA
:10101000C3F8082520204FF08042C1F80805C3F826
:1010200008255DF8044B7047000300500A4B185C1C
:101030001F288ABF09494FF0A04100F01F00D1F8D6
:1010400004350122824022EA03001340C1F808055A
:10105000C1F80C35704700BF0C6F02000003005050
:10106000074B1B5C1F2B8ABF064A4FF0A04203F0C0
:101070001F03D2F81005D840C04300F001007047AC
:10108000086F0200000300500E2805D0172814BF77
:101090004FF0FF300120704700207047014B185C73
:1010A000704700BF086F0200C10709D4830741BF22
:1010B0004FF0A0430C22C3F83827C3F85C277047D1
:1010C0004FF0A043244910B403224FF40014C3F896
:1010D0005427C3F85827C3F83C27C3F86027C3F840
:1010E0004C27C3F87027C3F82C27C3F87C27C1F816
:1010F0001427C3F87827C3F80C454FF400424FF487
:101100008004C3F80C45C3F80C254FF080744FF4ED
:101110000022C3F80C45C3F80C254FF080544FF45F
:101120000062C3F80C45C3F80C254FF000442022A0
:10113000C3F80C45C1F80C254FF08042C3F80C25CC
:10114000820706D54FF0A0430C22C3F83827C3F816
:101150005C275DF8044B70470003005010B5294C24
:10116000437944F82320284C04EBC3031B79002B5C
:101170003BD103680A88C3F8082590F904308A78BF
:10118000002B2ADB03F16043520103F56143D2B225
:1011900083F8002390F90430002B09DB1B494FEA48
:1011A000531C012203F01F0302FA03F341F82C3011
:1011B0004279174B44F832001648181A04EBC20162
:1011C000C0084FF0010C000481F804C040F0030097
:1011D0001149FDF7EDFE002010BD104903F00F038B
:1011E00052011944D2B20A76D4E70A4B08480C4996
:1011F000C01AC008000440F00200FDF7D9FE082024
:1012000010BD00BF083200200032002000E100E0E5
:1012100020730200087302003C6F0200FCEC00E047
:10122000186F0200036801221A60704703680122E8
:101230005A60704770B405684FF480348C40C5F82C
:101240000843056801F1500CC5F848434FEA8C0C7F
:1012500005681FFA8CFC002645F80C6083B055F831
:101260000C500195019D056801F5A87122F07F429F
:1012700045F821200268C2F8444313B10368C3F85B
:10128000044303B070BC70472DE9F0474FF480373A
:10129000994603688F40C3F848730368C3F808731E
:1012A000036801F150060D4603EB810122F07F48EF
:1012B000D3F80435D1F84025C1F84035B600B6B2B0
:1012C000D21A03684FF0000A43F806A082B09B5977
:1012D000009322F07F42012A009B044645D02368F8
:1012E000D3F80465C3F84473A8EB060323F07F43E7
:1012F000012B05F5A87527D0226842F825802168C2
:10130000D1F80405A8EB0002C9F1FF13013A03F577
:101310007F4322F07F42934212D342B1C1F844731B
:1013200023680020C3F8047302B0BDE8F08708F119
:10133000010341F825302168D1F804359842EDD0F9
:101340000D2002B0BDE8F087236808F1010243F8E0
:1013500025200C4B4FF4806043F00103984721682F
:10136000D1F804359E42D9D0EAE7064B4FF48060AD
:1013700043F001039847236843F806A09B59019363
:10138000019BACE7506F020002680223C2F84433AD
:1013900011B10268C2F80433704700BF0368D3F884
:1013A000040100B97047002282B0C3F80421D3F8C9
:1013B00004310193019B012002B0704702684FF491
:1013C000803303FA01F1C2F848130368C3F8081325
:1013D000704700BF50318900036889B2585800B97E
:1013E000704700225A5082B05B580193019B012044
:1013F00002B070470368D3F80405704790F90430D1
:10140000002B09DB5A09054803F01F030121403274
:1014100001FA03F340F82230704700BF00E100E01A
:10142000024A034B10681B68184700BF00320020B7
:101430000832002099B110B4B2FBF3F403FB14247A
:10144000A4B244B90160446084608281C3812046B3
:101450005DF8044B704709205DF8044B70470E207F
:10146000704700BF10B483B050E8013F1FFA83FCFF
:10147000C489A4448489A44528BFACEB040C048926
:10148000A44502BFBFF32F8F002207E0CCEA030C74
:1014900040E801C4002CE7D14FF001028DF8032091
:1014A0000193019C9DF803200C6032B1006810FA92
:1014B00084F003B05DF8044B704702F0FF03184658
:1014C00003B05DF8044B70470A884B889A4201D0FC
:1014D0000020704750E8012FC2EA024240E8012391
:1014E000002BF7D10120704710B483B050E8023FC1
:1014F0001FFAA3FCC488A44502BFBFF32F8F0022AC
:101500000EE0C489A4448489A44528BFACEB040C34
:10151000C3EA0C4C40E802C4002CE7D14FF00102B2
:101520008DF803200193019C9DF803200C6032B1DB
:10153000006800EB144003B05DF8044B704702F004
:10154000FF03184603B05DF8044B70470A884B88C8
:101550009A4201D00020704750E8022FC2EA22428E
:1015600040E80223002BF7D101207047034653E8DF
:10157000000F0A4643E8002C9CF0000FF7D170479B
:10158000034653E8002F42EA010043E8000C9CF0B8
:10159000000FF6D1704700BF034653E8002F02EA60
:1015A000010043E8000C9CF0000FF6D1704700BF2B
:1015B000034653E8002F02EB010043E8000C9CF0C7
:1015C000000FF6D1704700BF034653E8002FA2EB8F
:1015D000010043E8000C9CF0000FF6D1704700BFFB
:1015E0000346012253E8001F41EA020043E8000CD1
:1015F0009CF0000FF6D170470346002253E8000F1D
:1016000000EA020143E8001C9CF0000FF6D170478D
:10161000D0B110B4D0E90112521A0468D2B2531EEC
:101620002160DBB252B101680A6803F1FF3C541C2F
:101630000C6013705FFA8CF3FF2BF4D10368002069
:1016400018715DF8044B70470E20704730B583B0B9
:10165000044600250DF107008DF80750FEF7B2FD96
:10166000D4E900311A688A4210D9511E19602168E4
:10167000A368086812F801CC0A79E5681B1ADBB286
:10168000208A9A4238BF0B7100FB0C559DF8070069
:10169000FEF7BEFD284603B030BD00BF30B505469D
:1016A00083B00DF1070000230C468DF80730FEF7DC
:1016B00089FD2A681368591C1160E9682A8A641A2E
:1016C000B4FBF2F41C709DF80700FEF7A1FD03B017
:1016D00030BD00BF704700BF00B583B0044B00931E
:1016E000044A402300F03AF803B05DF804FB00BF61
:1016F000F91602000C32002022B32DE9F843134BF7
:10170000134E88461446032743F00109002522465C
:1017100008EB0501002000F0DDFB034601224FF439
:101720007A40E41A1D4443B933784BB1C847013FAE
:101730004FF0010307D03370E9E73270002CE6D197
:10174000BDE8F88370473770BDE8F883606F02002A
:101750004C320020704700BF00F092BCF0B595B04D
:10176000084600240E4617461D46FDF787FD1A9AC7
:101770000D922346082205A93046CDE90954089761
:101780008DF82C400C94FDF7DDFDDDE906219DF878
:1017900014308DF81140CDE9021203F00302012A42
:1017A00028D0022A04D03046FDF76CFD15B0F0BDFC
:1017B000BDF81650C3F3C203C5F389158DF8103078
:1017C0000827082D2C4628BF08243B4622460EA990
:1017D0003046FDF7B7FD2D1B08AB02AA21460EA827
:1017E000274400F0DDF8002DEBD13046FDF74AFD2F
:1017F00015B0F0BDBDF814100598C1F38312C3F302
:10180000C203C0F39525C1F383148DF810300EA9DF
:10181000304692000823FDF795FD08AB0093224661
:1018200002AB0EA9284600F045F83046FDF72AFD28
:1018300015B0F0BD70B5C38882B004460D461BBB21
:10184000237A052B1ED0627A7AB9134AA08852F8FF
:1018500023600021FDF788F81049034632462846E8
:1018600002B0BDE8704000F00FBF1946A088FDF738
:101870009FF80B4B0B4953F82020284600F004FF3B
:10188000237AE2E702B070BD07490091074A084990
:10189000284600F0F9FED3E740700200A06F020076
:1018A0001C7002009C6F0200946F0200746F0200B3
:1018B0007C6F02002DE9F04385B01D460C9C00238F
:1018C00094F80C90237380460E461746214628460E
:1018D000FFF7B0FF062F09D8DFE807F0042E343BEE
:1018E000444F1F004146204600F0CEFE2B7A052BC8
:1018F00005D06B7A5BB92749204600F0C5FE20462B
:1019000000F0B6FE84F80C9005B0BDE8F083224AE2
:101910002249204600F0B8FEEDE77369039333696E
:101920000293F3680193B3680093D6E9002341461C
:10193000204600F0A9FED9E732684146204600F073
:10194000A3FED3E7D6E900234146204600F09CFEE3
:10195000CCE7B3680093D6E900234146204600F067
:1019600093FEC3E7F3680193B3680093D6E90023BD
:101970004146204600F088FEB8E733690293F368D9
:101980000193B3680093D6E900234146204600F056
:101990007BFEABE7AC6F0200946F02009C6F02000D
:1019A000082900D970472DE9F04F1D4683B0002467
:1019B0001B7B2C730E460746294610469046019322
:1019C000DFF8D0B0DFF8D0A0FFF734FF05E03A5DD4
:1019D000013400F059FE082C09D0A6425146284691
:1019E000F5D85946013400F04FFE082CF5D12449B2
:1019F000DFF8A8B0234CDFF8A8A0284600F044FE8A
:101A00004FF0000917E017F80910481C7E294FF025
:101A10002E02C0B206D81AF8002012F0970F14BF99
:101A20000A462E222146284609F1010900F02CFE23
:101A3000B9F1080F0AD04E45E5D85946284609F1B4
:101A4000010900F021FEB9F1080FF4D198F808302F
:101A5000052B02D098F809305BB90B49284600F0F5
:101A600013FE284600F004FE019B2B7303B0BDE873
:101A7000F08F064A0649284600F006FEEDE700BF53
:101A8000BC6F0200C06F0200AC6F0200946F0200D6
:101A90009C6F0200B86F0200B06F0200A86F0200D6
:101AA000A871020070B54468064620680D4618B952
:101AB00008E02468206828B1B368294698470028C0
:101AC000F7D120682860256070BD00BF43681868A2
